{
  "address": "0x7c3B528dE0f7aee5101Ed9CC6c8B2398c92E5774",
  "abi": [
    {
      "inputs": [
        {
          "internalType": "contract IAToken",
          "name": "_aToken",
          "type": "address"
        },
        {
          "internalType": "contract IRewardsController",
          "name": "_rewardsController",
          "type": "address"
        },
        {
          "internalType": "contract IPoolAddressesProviderRegistry",
          "name": "_poolAddressesProviderRegistry",
          "type": "address"
        },
        {
          "internalType": "string",
          "name": "_name",
          "type": "string"
        },
        {
          "internalType": "string",
          "name": "_symbol",
          "type": "string"
        },
        {
          "internalType": "uint8",
          "name": "decimals_",
          "type": "uint8"
        },
        {
          "internalType": "address",
          "name": "_owner",
          "type": "address"
        }
      ],
      "stateMutability": "nonpayable",
      "type": "constructor"
    },
    {
      "anonymous": false,
      "inputs": [
        {
          "indexed": true,
          "internalType": "contract IAToken",
          "name": "aToken",
          "type": "address"
        },
        {
          "indexed": false,
          "internalType": "contract IRewardsController",
          "name": "rewardsController",
          "type": "address"
        },
        {
          "indexed": false,
          "internalType": "contract IPoolAddressesProviderRegistry",
          "name": "poolAddressesProviderRegistry",
          "type": "address"
        },
        {
          "indexed": false,
          "internalType": "string",
          "name": "name",
          "type": "string"
        },
        {
          "indexed": false,
          "internalType": "string",
          "name": "symbol",
          "type": "string"
        },
        {
          "indexed": false,
          "internalType": "uint8",
          "name": "decimals",
          "type": "uint8"
        },
        {
          "indexed": true,
          "internalType": "address",
          "name": "owner",
          "type": "address"
        }
      ],
      "name": "AaveV3YieldSourceInitialized",
      "type": "event"
    },
    {
      "anonymous": false,
      "inputs": [
        {
          "indexed": true,
          "internalType": "address",
          "name": "owner",
          "type": "address"
        },
        {
          "indexed": true,
          "internalType": "address",
          "name": "spender",
          "type": "address"
        },
        {
          "indexed": false,
          "internalType": "uint256",
          "name": "value",
          "type": "uint256"
        }
      ],
      "name": "Approval",
      "type": "event"
    },
    {
      "anonymous": false,
      "inputs": [
        {
          "indexed": true,
          "internalType": "address",
          "name": "from",
          "type": "address"
        },
        {
          "indexed": true,
          "internalType": "address",
          "name": "to",
          "type": "address"
        },
        {
          "indexed": false,
          "internalType": "address[]",
          "name": "rewardsList",
          "type": "address[]"
        },
        {
          "indexed": false,
          "internalType": "uint256[]",
          "name": "claimedAmounts",
          "type": "uint256[]"
        }
      ],
      "name": "Claimed",
      "type": "event"
    },
    {
      "anonymous": false,
      "inputs": [
        {
          "indexed": true,
          "internalType": "address",
          "name": "from",
          "type": "address"
        },
        {
          "indexed": true,
          "internalType": "address",
          "name": "spender",
          "type": "address"
        },
        {
          "indexed": false,
          "internalType": "uint256",
          "name": "amount",
          "type": "uint256"
        },
        {
          "indexed": true,
          "internalType": "contract IERC20",
          "name": "token",
          "type": "address"
        }
      ],
      "name": "DecreasedERC20Allowance",
      "type": "event"
    },
    {
      "anonymous": false,
      "inputs": [
        {
          "indexed": true,
          "internalType": "address",
          "name": "from",
          "type": "address"
        },
        {
          "indexed": true,
          "internalType": "address",
          "name": "spender",
          "type": "address"
        },
        {
          "indexed": false,
          "internalType": "uint256",
          "name": "amount",
          "type": "uint256"
        },
        {
          "indexed": true,
          "internalType": "contract IERC20",
          "name": "token",
          "type": "address"
        }
      ],
      "name": "IncreasedERC20Allowance",
      "type": "event"
    },
    {
      "anonymous": false,
      "inputs": [
        {
          "indexed": true,
          "internalType": "address",
          "name": "previousOwner",
          "type": "address"
        },
        {
          "indexed": true,
          "internalType": "address",
          "name": "newOwner",
          "type": "address"
        }
      ],
      "name": "OwnershipTransferred",
      "type": "event"
    },
    {
      "anonymous": false,
      "inputs": [
        {
          "indexed": true,
          "internalType": "address",
          "name": "from",
          "type": "address"
        },
        {
          "indexed": false,
          "internalType": "uint256",
          "name": "shares",
          "type": "uint256"
        },
        {
          "indexed": false,
          "internalType": "uint256",
          "name": "amount",
          "type": "uint256"
        }
      ],
      "name": "RedeemedToken",
      "type": "event"
    },
    {
      "anonymous": false,
      "inputs": [
        {
          "indexed": true,
          "internalType": "address",
          "name": "from",
          "type": "address"
        },
        {
          "indexed": false,
          "internalType": "uint256",
          "name": "shares",
          "type": "uint256"
        },
        {
          "indexed": false,
          "internalType": "uint256",
          "name": "amount",
          "type": "uint256"
        },
        {
          "indexed": true,
          "internalType": "address",
          "name": "to",
          "type": "address"
        }
      ],
      "name": "SuppliedTokenTo",
      "type": "event"
    },
    {
      "anonymous": false,
      "inputs": [
        {
          "indexed": true,
          "internalType": "address",
          "name": "from",
          "type": "address"
        },
        {
          "indexed": true,
          "internalType": "address",
          "name": "to",
          "type": "address"
        },
        {
          "indexed": false,
          "internalType": "uint256",
          "name": "value",
          "type": "uint256"
        }
      ],
      "name": "Transfer",
      "type": "event"
    },
    {
      "anonymous": false,
      "inputs": [
        {
          "indexed": true,
          "internalType": "address",
          "name": "from",
          "type": "address"
        },
        {
          "indexed": true,
          "internalType": "address",
          "name": "to",
          "type": "address"
        },
        {
          "indexed": false,
          "internalType": "uint256",
          "name": "amount",
          "type": "uint256"
        },
        {
          "indexed": true,
          "internalType": "contract IERC20",
          "name": "token",
          "type": "address"
        }
      ],
      "name": "TransferredERC20",
      "type": "event"
    },
    {
      "inputs": [],
      "name": "aToken",
      "outputs": [
        {
          "internalType": "contract IAToken",
          "name": "",
          "type": "address"
        }
      ],
      "stateMutability": "view",
      "type": "function"
    },
    {
      "inputs": [
        {
          "internalType": "address",
          "name": "owner",
          "type": "address"
        },
        {
          "internalType": "address",
          "name": "spender",
          "type": "address"
        }
      ],
      "name": "allowance",
      "outputs": [
        {
          "internalType": "uint256",
          "name": "",
          "type": "uint256"
        }
      ],
      "stateMutability": "view",
      "type": "function"
    },
    {
      "inputs": [
        {
          "internalType": "address",
          "name": "spender",
          "type": "address"
        },
        {
          "internalType": "uint256",
          "name": "amount",
          "type": "uint256"
        }
      ],
      "name": "approve",
      "outputs": [
        {
          "internalType": "bool",
          "name": "",
          "type": "bool"
        }
      ],
      "stateMutability": "nonpayable",
      "type": "function"
    },
    {
      "inputs": [
        {
          "internalType": "address",
          "name": "account",
          "type": "address"
        }
      ],
      "name": "balanceOf",
      "outputs": [
        {
          "internalType": "uint256",
          "name": "",
          "type": "uint256"
        }
      ],
      "stateMutability": "view",
      "type": "function"
    },
    {
      "inputs": [
        {
          "internalType": "address",
          "name": "_user",
          "type": "address"
        }
      ],
      "name": "balanceOfToken",
      "outputs": [
        {
          "internalType": "uint256",
          "name": "",
          "type": "uint256"
        }
      ],
      "stateMutability": "view",
      "type": "function"
    },
    {
      "inputs": [
        {
          "internalType": "address",
          "name": "_to",
          "type": "address"
        }
      ],
      "name": "claimRewards",
      "outputs": [],
      "stateMutability": "nonpayable",
      "type": "function"
    },
    {
      "inputs": [],
      "name": "decimals",
      "outputs": [
        {
          "internalType": "uint8",
          "name": "",
          "type": "uint8"
        }
      ],
      "stateMutability": "view",
      "type": "function"
    },
    {
      "inputs": [
        {
          "internalType": "address",
          "name": "spender",
          "type": "address"
        },
        {
          "internalType": "uint256",
          "name": "subtractedValue",
          "type": "uint256"
        }
      ],
      "name": "decreaseAllowance",
      "outputs": [
        {
          "internalType": "bool",
          "name": "",
          "type": "bool"
        }
      ],
      "stateMutability": "nonpayable",
      "type": "function"
    },
    {
      "inputs": [
        {
          "internalType": "contract IERC20",
          "name": "_token",
          "type": "address"
        },
        {
          "internalType": "address",
          "name": "_spender",
          "type": "address"
        },
        {
          "internalType": "uint256",
          "name": "_amount",
          "type": "uint256"
        }
      ],
      "name": "decreaseERC20Allowance",
      "outputs": [],
      "stateMutability": "nonpayable",
      "type": "function"
    },
    {
      "inputs": [],
      "name": "depositToken",
      "outputs": [
        {
          "internalType": "address",
          "name": "",
          "type": "address"
        }
      ],
      "stateMutability": "view",
      "type": "function"
    },
    {
      "inputs": [
        {
          "internalType": "address",
          "name": "spender",
          "type": "address"
        },
        {
          "internalType": "uint256",
          "name": "addedValue",
          "type": "uint256"
        }
      ],
      "name": "increaseAllowance",
      "outputs": [
        {
          "internalType": "bool",
          "name": "",
          "type": "bool"
        }
      ],
      "stateMutability": "nonpayable",
      "type": "function"
    },
    {
      "inputs": [
        {
          "internalType": "contract IERC20",
          "name": "_token",
          "type": "address"
        },
        {
          "internalType": "address",
          "name": "_spender",
          "type": "address"
        },
        {
          "internalType": "uint256",
          "name": "_amount",
          "type": "uint256"
        }
      ],
      "name": "increaseERC20Allowance",
      "outputs": [],
      "stateMutability": "nonpayable",
      "type": "function"
    },
    {
      "inputs": [],
      "name": "name",
      "outputs": [
        {
          "internalType": "string",
          "name": "",
          "type": "string"
        }
      ],
      "stateMutability": "view",
      "type": "function"
    },
    {
      "inputs": [],
      "name": "owner",
      "outputs": [
        {
          "internalType": "address",
          "name": "",
          "type": "address"
        }
      ],
      "stateMutability": "view",
      "type": "function"
    },
    {
      "inputs": [],
      "name": "poolAddressesProviderRegistry",
      "outputs": [
        {
          "internalType": "contract IPoolAddressesProviderRegistry",
          "name": "",
          "type": "address"
        }
      ],
      "stateMutability": "view",
      "type": "function"
    },
    {
      "inputs": [
        {
          "internalType": "uint256",
          "name": "_redeemAmount",
          "type": "uint256"
        }
      ],
      "name": "redeemToken",
      "outputs": [
        {
          "internalType": "uint256",
          "name": "",
          "type": "uint256"
        }
      ],
      "stateMutability": "nonpayable",
      "type": "function"
    },
    {
      "inputs": [],
      "name": "redeemYieldAndTransferToOwner",
      "outputs": [
        {
          "internalType": "uint256",
          "name": "",
          "type": "uint256"
        }
      ],
      "stateMutability": "nonpayable",
      "type": "function"
    },
    {
      "inputs": [],
      "name": "renounceOwnership",
      "outputs": [],
      "stateMutability": "nonpayable",
      "type": "function"
    },
    {
      "inputs": [],
      "name": "rewardsController",
      "outputs": [
        {
          "internalType": "contract IRewardsController",
          "name": "",
          "type": "address"
        }
      ],
      "stateMutability": "view",
      "type": "function"
    },
    {
      "inputs": [
        {
          "internalType": "uint256",
          "name": "_depositAmount",
          "type": "uint256"
        },
        {
          "internalType": "address",
          "name": "_to",
          "type": "address"
        }
      ],
      "name": "supplyTokenTo",
      "outputs": [],
      "stateMutability": "nonpayable",
      "type": "function"
    },
    {
      "inputs": [],
      "name": "symbol",
      "outputs": [
        {
          "internalType": "string",
          "name": "",
          "type": "string"
        }
      ],
      "stateMutability": "view",
      "type": "function"
    },
    {
      "inputs": [],
      "name": "totalSupply",
      "outputs": [
        {
          "internalType": "uint256",
          "name": "",
          "type": "uint256"
        }
      ],
      "stateMutability": "view",
      "type": "function"
    },
    {
      "inputs": [
        {
          "internalType": "address",
          "name": "to",
          "type": "address"
        },
        {
          "internalType": "uint256",
          "name": "amount",
          "type": "uint256"
        }
      ],
      "name": "transfer",
      "outputs": [
        {
          "internalType": "bool",
          "name": "",
          "type": "bool"
        }
      ],
      "stateMutability": "nonpayable",
      "type": "function"
    },
    {
      "inputs": [
        {
          "internalType": "contract IERC20",
          "name": "_token",
          "type": "address"
        },
        {
          "internalType": "address",
          "name": "_to",
          "type": "address"
        },
        {
          "internalType": "uint256",
          "name": "_amount",
          "type": "uint256"
        }
      ],
      "name": "transferERC20",
      "outputs": [],
      "stateMutability": "nonpayable",
      "type": "function"
    },
    {
      "inputs": [
        {
          "internalType": "address",
          "name": "from",
          "type": "address"
        },
        {
          "internalType": "address",
          "name": "to",
          "type": "address"
        },
        {
          "internalType": "uint256",
          "name": "amount",
          "type": "uint256"
        }
      ],
      "name": "transferFrom",
      "outputs": [
        {
          "internalType": "bool",
          "name": "",
          "type": "bool"
        }
      ],
      "stateMutability": "nonpayable",
      "type": "function"
    },
    {
      "inputs": [
        {
          "internalType": "address",
          "name": "newOwner",
          "type": "address"
        }
      ],
      "name": "transferOwnership",
      "outputs": [],
      "stateMutability": "nonpayable",
      "type": "function"
    }
  ],
  "transactionHash": "0x250ef50009ce3486f59e18a730ab3a75b34c3d15bd98e793f0ed8f09a890ce60",
  "args": [
    "0x4e65fE4DbA92790696d040ac24Aa414708F5c0AB",
    "0xf9cc4F0D883F1a1eb2c253bdb46c254Ca51E1F44",
    "0x2f6571d3Eb9a4e350C68C36bCD2afe39530078E2",
    "PoolBitAaveUSDC",
    "PoolBitAaveUSDC",
    6,
    "0xaB0035b4d11c325A42582E779206eA9ef717c975"
  ],
  "numDeployments": 1,
  "solcInputHash": "ce7e3b7406686b47a4096347a4c174ec",
  "bytecode": "0x6101406040523480156200001257600080fd5b5060405162005cdf38038062005cdf833981810160405281019062000038919062000eba565b838381600390805190602001906200005292919062000afb565b5080600490805190602001906200006b92919062000afb565b5050506200008e62000082620004e960201b60201c565b620004f160201b60201c565b600073ffffffffffffffffffffffffffffffffffffffff168173ffffffffffffffffffffffffffffffffffffffff16141562000101576040517f08c379a0000000000000000000000000000000000000000000000000000000008152600401620000f8906200100c565b60405180910390fd5b600073ffffffffffffffffffffffffffffffffffffffff168773ffffffffffffffffffffffffffffffffffffffff16141562000174576040517f08c379a00000000000000000000000000000000000000000000000000000000081526004016200016b906200107e565b60405180910390fd5b60008260ff1611620001bd576040517f08c379a0000000000000000000000000000000000000000000000000000000008152600401620001b490620010f0565b60405180910390fd5b600073ffffffffffffffffffffffffffffffffffffffff168673ffffffffffffffffffffffffffffffffffffffff16141562000230576040517f08c379a0000000000000000000000000000000000000000000000000000000008152600401620002279062001162565b60405180910390fd5b600073ffffffffffffffffffffffffffffffffffffffff168573ffffffffffffffffffffffffffffffffffffffff161415620002a3576040517f08c379a00000000000000000000000000000000000000000000000000000000081526004016200029a90620011d4565b60405180910390fd5b8673ffffffffffffffffffffffffffffffffffffffff1660808173ffffffffffffffffffffffffffffffffffffffff16815250508160ff166101208160ff168152505081600a620002f5919062001383565b61010081815250508673ffffffffffffffffffffffffffffffffffffffff1663b16a19de6040518163ffffffff1660e01b8152600401602060405180830381865afa15801562000349573d6000803e3d6000fd5b505050506040513d601f19601f820116820180604052508101906200036f9190620013d4565b73ffffffffffffffffffffffffffffffffffffffff1660e08173ffffffffffffffffffffffffffffffffffffffff16815250508573ffffffffffffffffffffffffffffffffffffffff1660a08173ffffffffffffffffffffffffffffffffffffffff16815250508473ffffffffffffffffffffffffffffffffffffffff1660c08173ffffffffffffffffffffffffffffffffffffffff16815250506200046d6200041e620005b760201b60201c565b7fffffffffffffffffffffffffffffffffffffffffffffffffffffffffffffffff60e05173ffffffffffffffffffffffffffffffffffffffff16620006c660201b62001402179092919060201c565b8073ffffffffffffffffffffffffffffffffffffffff168773ffffffffffffffffffffffffffffffffffffffff167fb4c0233428c55a68617f46f436f714ada4aebd76cf3d8844a1d76846ed646a868888888888604051620004d4959493929190620014f3565b60405180910390a35050505050505062001b30565b600033905090565b6000600560009054906101000a900473ffffffffffffffffffffffffffffffffffffffff16905081600560006101000a81548173ffffffffffffffffffffffffffffffffffffffff021916908373ffffffffffffffffffffffffffffffffffffffff1602179055508173ffffffffffffffffffffffffffffffffffffffff168173ffffffffffffffffffffffffffffffffffffffff167f8be0079c531659141344cd1fd0a4f28419497f9722a3daafe3b4186f6b6457e060405160405180910390a35050565b600060c05173ffffffffffffffffffffffffffffffffffffffff1663365ccbbf6040518163ffffffff1660e01b8152600401600060405180830381865afa15801562000607573d6000803e3d6000fd5b505050506040513d6000823e3d601f19601f8201168201806040525081019062000632919062001639565b6000815181106200064857620006476200168a565b5b602002602001015173ffffffffffffffffffffffffffffffffffffffff1663026b1d5f6040518163ffffffff1660e01b8152600401602060405180830381865afa1580156200069b573d6000803e3d6000fd5b505050506040513d601f19601f82011682018060405250810190620006c19190620013d4565b905090565b600081148062000756575060008373ffffffffffffffffffffffffffffffffffffffff1663dd62ed3e30856040518363ffffffff1660e01b815260040162000710929190620016ca565b602060405180830381865afa1580156200072e573d6000803e3d6000fd5b505050506040513d601f19601f8201168201806040525081019062000754919062001728565b145b62000798576040517f08c379a00000000000000000000000000000000000000000000000000000000081526004016200078f90620017d0565b60405180910390fd5b620008238363095ea7b360e01b8484604051602401620007ba92919062001803565b604051602081830303815290604052907bffffffffffffffffffffffffffffffffffffffffffffffffffffffff19166020820180517bffffffffffffffffffffffffffffffffffffffffffffffffffffffff83818316178352505050506200082860201b60201c565b505050565b600062000891826040518060400160405280602081526020017f5361666545524332303a206c6f772d6c6576656c2063616c6c206661696c65648152508573ffffffffffffffffffffffffffffffffffffffff16620008fd60201b62001551179092919060201c565b9050600081511480620008b6575080806020019051810190620008b591906200186d565b5b620008f8576040517f08c379a0000000000000000000000000000000000000000000000000000000008152600401620008ef9062001915565b60405180910390fd5b505050565b60606200091484846000856200091d60201b60201c565b90509392505050565b60608247101562000965576040517f08c379a00000000000000000000000000000000000000000000000000000000081526004016200095c90620019ad565b60405180910390fd5b6000808673ffffffffffffffffffffffffffffffffffffffff16858760405162000990919062001a1c565b60006040518083038185875af1925050503d8060008114620009cf576040519150601f19603f3d011682016040523d82523d6000602084013e620009d4565b606091505b5091509150620009ed87838387620009f960201b60201c565b92505050949350505050565b6060831562000a6a5760008351141562000a615762000a1e8562000a8560201b60201c565b62000a60576040517f08c379a000000000000000000000000000000000000000000000000000000000815260040162000a579062001a85565b60405180910390fd5b5b82905062000a7d565b62000a7c838362000aa860201b60201c565b5b949350505050565b6000808273ffffffffffffffffffffffffffffffffffffffff163b119050919050565b60008251111562000abc5781518083602001fd5b806040517f08c379a000000000000000000000000000000000000000000000000000000000815260040162000af2919062001aa7565b60405180910390fd5b82805462000b099062001afa565b90600052602060002090601f01602090048101928262000b2d576000855562000b79565b82601f1062000b4857805160ff191683800117855562000b79565b8280016001018555821562000b79579182015b8281111562000b7857825182559160200191906001019062000b5b565b5b50905062000b88919062000b8c565b5090565b5b8082111562000ba757600081600090555060010162000b8d565b5090565b6000604051905090565b600080fd5b600080fd5b600073ffffffffffffffffffffffffffffffffffffffff82169050919050565b600062000bec8262000bbf565b9050919050565b600062000c008262000bdf565b9050919050565b62000c128162000bf3565b811462000c1e57600080fd5b50565b60008151905062000c328162000c07565b92915050565b600062000c458262000bdf565b9050919050565b62000c578162000c38565b811462000c6357600080fd5b50565b60008151905062000c778162000c4c565b92915050565b600062000c8a8262000bdf565b9050919050565b62000c9c8162000c7d565b811462000ca857600080fd5b50565b60008151905062000cbc8162000c91565b92915050565b600080fd5b600080fd5b6000601f19601f8301169050919050565b7f4e487b7100000000000000000000000000000000000000000000000000000000600052604160045260246000fd5b62000d178262000ccc565b810181811067ffffffffffffffff8211171562000d395762000d3862000cdd565b5b80604052505050565b600062000d4e62000bab565b905062000d5c828262000d0c565b919050565b600067ffffffffffffffff82111562000d7f5762000d7e62000cdd565b5b62000d8a8262000ccc565b9050602081019050919050565b60005b8381101562000db757808201518184015260208101905062000d9a565b8381111562000dc7576000848401525b50505050565b600062000de462000dde8462000d61565b62000d42565b90508281526020810184848401111562000e035762000e0262000cc7565b5b62000e1084828562000d97565b509392505050565b600082601f83011262000e305762000e2f62000cc2565b5b815162000e4284826020860162000dcd565b91505092915050565b600060ff82169050919050565b62000e638162000e4b565b811462000e6f57600080fd5b50565b60008151905062000e838162000e58565b92915050565b62000e948162000bdf565b811462000ea057600080fd5b50565b60008151905062000eb48162000e89565b92915050565b600080600080600080600060e0888a03121562000edc5762000edb62000bb5565b5b600062000eec8a828b0162000c21565b975050602062000eff8a828b0162000c66565b965050604062000f128a828b0162000cab565b955050606088015167ffffffffffffffff81111562000f365762000f3562000bba565b5b62000f448a828b0162000e18565b945050608088015167ffffffffffffffff81111562000f685762000f6762000bba565b5b62000f768a828b0162000e18565b93505060a062000f898a828b0162000e72565b92505060c062000f9c8a828b0162000ea3565b91505092959891949750929550565b600082825260208201905092915050565b7f41617665563359532f6f776e65722d6e6f742d7a65726f2d6164647265737300600082015250565b600062000ff4601f8362000fab565b9150620010018262000fbc565b602082019050919050565b60006020820190508181036000830152620010278162000fe5565b9050919050565b7f41617665563359532f61546f6b656e2d6e6f742d7a65726f2d61646472657373600082015250565b60006200106660208362000fab565b915062001073826200102e565b602082019050919050565b60006020820190508181036000830152620010998162001057565b9050919050565b7f41617665563359532f646563696d616c732d67742d7a65726f00000000000000600082015250565b6000620010d860198362000fab565b9150620010e582620010a0565b602082019050919050565b600060208201905081810360008301526200110b81620010c9565b9050919050565b7f41617665563359532f52432d6e6f742d7a65726f2d6164647265737300000000600082015250565b60006200114a601c8362000fab565b9150620011578262001112565b602082019050919050565b600060208201905081810360008301526200117d816200113b565b9050919050565b7f41617665563359532f50522d6e6f742d7a65726f2d6164647265737300000000600082015250565b6000620011bc601c8362000fab565b9150620011c98262001184565b602082019050919050565b60006020820190508181036000830152620011ef81620011ad565b9050919050565b7f4e487b7100000000000000000000000000000000000000000000000000000000600052601160045260246000fd5b60008160011c9050919050565b6000808291508390505b600185111562001284578086048111156200125c576200125b620011f6565b5b60018516156200126c5780820291505b80810290506200127c8562001225565b94506200123c565b94509492505050565b6000826200129f576001905062001372565b81620012af576000905062001372565b8160018114620012c85760028114620012d35762001309565b600191505062001372565b60ff841115620012e857620012e7620011f6565b5b8360020a915084821115620013025762001301620011f6565b5b5062001372565b5060208310610133831016604e8410600b8410161715620013435782820a9050838111156200133d576200133c620011f6565b5b62001372565b62001352848484600162001232565b925090508184048111156200136c576200136b620011f6565b5b81810290505b9392505050565b6000819050919050565b6000620013908262001379565b91506200139d8362000e4b565b9250620013cc7fffffffffffffffffffffffffffffffffffffffffffffffffffffffffffffffff84846200128d565b905092915050565b600060208284031215620013ed57620013ec62000bb5565b5b6000620013fd8482850162000ea3565b91505092915050565b6000819050919050565b6000620014316200142b620014258462000bbf565b62001406565b62000bbf565b9050919050565b6000620014458262001410565b9050919050565b6000620014598262001438565b9050919050565b6200146b816200144c565b82525050565b60006200147e8262001438565b9050919050565b620014908162001471565b82525050565b600081519050919050565b6000620014ae8262001496565b620014ba818562000fab565b9350620014cc81856020860162000d97565b620014d78162000ccc565b840191505092915050565b620014ed8162000e4b565b82525050565b600060a0820190506200150a600083018862001460565b62001519602083018762001485565b81810360408301526200152d8186620014a1565b90508181036060830152620015438185620014a1565b9050620015546080830184620014e2565b9695505050505050565b600067ffffffffffffffff8211156200157c576200157b62000cdd565b5b602082029050602081019050919050565b600080fd5b6000620015a9620015a3846200155e565b62000d42565b90508083825260208201905060208402830185811115620015cf57620015ce6200158d565b5b835b81811015620015fc5780620015e7888262000ea3565b845260208401935050602081019050620015d1565b5050509392505050565b600082601f8301126200161e576200161d62000cc2565b5b81516200163084826020860162001592565b91505092915050565b60006020828403121562001652576200165162000bb5565b5b600082015167ffffffffffffffff81111562001673576200167262000bba565b5b620016818482850162001606565b91505092915050565b7f4e487b7100000000000000000000000000000000000000000000000000000000600052603260045260246000fd5b620016c48162000bdf565b82525050565b6000604082019050620016e16000830185620016b9565b620016f06020830184620016b9565b9392505050565b620017028162001379565b81146200170e57600080fd5b50565b6000815190506200172281620016f7565b92915050565b60006020828403121562001741576200174062000bb5565b5b6000620017518482850162001711565b91505092915050565b7f5361666545524332303a20617070726f76652066726f6d206e6f6e2d7a65726f60008201527f20746f206e6f6e2d7a65726f20616c6c6f77616e636500000000000000000000602082015250565b6000620017b860368362000fab565b9150620017c5826200175a565b604082019050919050565b60006020820190508181036000830152620017eb81620017a9565b9050919050565b620017fd8162001379565b82525050565b60006040820190506200181a6000830185620016b9565b620018296020830184620017f2565b9392505050565b60008115159050919050565b620018478162001830565b81146200185357600080fd5b50565b60008151905062001867816200183c565b92915050565b60006020828403121562001886576200188562000bb5565b5b6000620018968482850162001856565b91505092915050565b7f5361666545524332303a204552433230206f7065726174696f6e20646964206e60008201527f6f74207375636365656400000000000000000000000000000000000000000000602082015250565b6000620018fd602a8362000fab565b91506200190a826200189f565b604082019050919050565b600060208201905081810360008301526200193081620018ee565b9050919050565b7f416464726573733a20696e73756666696369656e742062616c616e636520666f60008201527f722063616c6c0000000000000000000000000000000000000000000000000000602082015250565b60006200199560268362000fab565b9150620019a28262001937565b604082019050919050565b60006020820190508181036000830152620019c88162001986565b9050919050565b600081519050919050565b600081905092915050565b6000620019f282620019cf565b620019fe8185620019da565b935062001a1081856020860162000d97565b80840191505092915050565b600062001a2a8284620019e5565b915081905092915050565b7f416464726573733a2063616c6c20746f206e6f6e2d636f6e7472616374000000600082015250565b600062001a6d601d8362000fab565b915062001a7a8262001a35565b602082019050919050565b6000602082019050818103600083015262001aa08162001a5e565b9050919050565b6000602082019050818103600083015262001ac38184620014a1565b905092915050565b7f4e487b7100000000000000000000000000000000000000000000000000000000600052602260045260246000fd5b6000600282049050600182168062001b1357607f821691505b6020821081141562001b2a5762001b2962001acb565b5b50919050565b60805160a05160c05160e05161010051610120516140f662001be9600039600061088e01526000818161161b0152818161165501528181611687015261243201526000818161054e0152818161061201528181610a3601528181610ac701528181610b3801528181610ba20152610fa601526000818161135c01526118e20152600081816108eb015261124801526000818161097701528181610e07015281816111d601528181611581015261228501526140f66000f3fe608060405234801561001057600080fd5b506004361061018e5760003560e01c806395d89b41116100de578063b99152d011610097578063dd62ed3e11610071578063dd62ed3e1461049b578063ef5cfb8c146104cb578063f2ca6b91146104e7578063f2fde38b146105055761018e565b8063b99152d014610431578063c89039c514610461578063cad1b1131461047f5761018e565b806395d89b411461035d5780639db5dbe41461037b578063a0c1f15e14610397578063a457c2d7146103b5578063a9059cbb146103e5578063b29fd859146104155761018e565b8063395093511161014b578063715018a611610125578063715018a6146102fb57806374b7eaff1461030557806387a6eeef146103235780638da5cb5b1461033f5761018e565b8063395093511461027d5780636bb65f53146102ad57806370a08231146102cb5761018e565b8063013054c21461019357806306fdde03146101c3578063095ea7b3146101e157806318160ddd1461021157806323b872dd1461022f578063313ce5671461025f575b600080fd5b6101ad60048036038101906101a89190612894565b610521565b6040516101ba91906128d0565b60405180910390f35b6101cb61079c565b6040516101d89190612984565b60405180910390f35b6101fb60048036038101906101f69190612a04565b61082e565b6040516102089190612a5f565b60405180910390f35b610219610851565b60405161022691906128d0565b60405180910390f35b61024960048036038101906102449190612a7a565b61085b565b6040516102569190612a5f565b60405180910390f35b61026761088a565b6040516102749190612ae9565b60405180910390f35b61029760048036038101906102929190612a04565b6108b2565b6040516102a49190612a5f565b60405180910390f35b6102b56108e9565b6040516102c29190612b63565b60405180910390f35b6102e560048036038101906102e09190612b7e565b61090d565b6040516102f291906128d0565b60405180910390f35b610303610955565b005b61030d610969565b60405161031a91906128d0565b60405180910390f35b61033d60048036038101906103389190612bab565b610b12565b005b610347610c8c565b6040516103549190612bfa565b60405180910390f35b610365610cb6565b6040516103729190612984565b60405180910390f35b61039560048036038101906103909190612c53565b610d48565b005b61039f610e05565b6040516103ac9190612cc7565b60405180910390f35b6103cf60048036038101906103ca9190612a04565b610e29565b6040516103dc9190612a5f565b60405180910390f35b6103ff60048036038101906103fa9190612a04565b610ea0565b60405161040c9190612a5f565b60405180910390f35b61042f600480360381019061042a9190612c53565b610ec3565b005b61044b60048036038101906104469190612b7e565b610f80565b60405161045891906128d0565b60405180910390f35b610469610fa2565b6040516104769190612bfa565b60405180910390f35b61049960048036038101906104949190612c53565b610fca565b005b6104b560048036038101906104b09190612ce2565b611087565b6040516104c291906128d0565b60405180910390f35b6104e560048036038101906104e09190612b7e565b61110e565b005b6104ef61135a565b6040516104fc9190612d43565b60405180910390f35b61051f600480360381019061051a9190612b7e565b61137e565b005b60008061053583610530611569565b61167b565b9050610540816116ca565b61054a3382611710565b60007f0000000000000000000000000000000000000000000000000000000000000000905060008173ffffffffffffffffffffffffffffffffffffffff166370a08231306040518263ffffffff1660e01b81526004016105aa9190612bfa565b602060405180830381865afa1580156105c7573d6000803e3d6000fd5b505050506040513d601f19601f820116820180604052508101906105eb9190612d73565b90506105f56118de565b73ffffffffffffffffffffffffffffffffffffffff166369328dec7f000000000000000000000000000000000000000000000000000000000000000087306040518463ffffffff1660e01b815260040161065193929190612da0565b6020604051808303816000875af1158015610670573d6000803e3d6000fd5b505050506040513d601f19601f820116820180604052508101906106949190612d73565b506000818373ffffffffffffffffffffffffffffffffffffffff166370a08231306040518263ffffffff1660e01b81526004016106d19190612bfa565b602060405180830381865afa1580156106ee573d6000803e3d6000fd5b505050506040513d601f19601f820116820180604052508101906107129190612d73565b03905061074033828573ffffffffffffffffffffffffffffffffffffffff16611a029092919063ffffffff16565b3373ffffffffffffffffffffffffffffffffffffffff167f5c9b0a8fe13a826ca676f5ad4f98c747b5086beb79ab58589b8211b62fa32fb98588604051610788929190612dd7565b60405180910390a280945050505050919050565b6060600380546107ab90612e2f565b80601f01602080910402602001604051908101604052809291908181526020018280546107d790612e2f565b80156108245780601f106107f957610100808354040283529160200191610824565b820191906000526020600020905b81548152906001019060200180831161080757829003601f168201915b5050505050905090565b600080610839611a88565b9050610846818585611a90565b600191505092915050565b6000600254905090565b600080610866611a88565b9050610873858285611c5b565b61087e858585611ce7565b60019150509392505050565b60007f0000000000000000000000000000000000000000000000000000000000000000905090565b6000806108bd611a88565b90506108de8185856108cf8589611087565b6108d99190612e90565b611a90565b600191505092915050565b7f000000000000000000000000000000000000000000000000000000000000000081565b60008060008373ffffffffffffffffffffffffffffffffffffffff1673ffffffffffffffffffffffffffffffffffffffff168152602001908152602001600020549050919050565b61095d611f5f565b6109676000611fdd565b565b6000610973611f5f565b60007f000000000000000000000000000000000000000000000000000000000000000073ffffffffffffffffffffffffffffffffffffffff166370a08231306040518263ffffffff1660e01b81526004016109ce9190612bfa565b602060405180830381865afa1580156109eb573d6000803e3d6000fd5b505050506040513d601f19601f82011682018060405250810190610a0f9190612d73565b9050610a196118de565b73ffffffffffffffffffffffffffffffffffffffff166369328dec7f000000000000000000000000000000000000000000000000000000000000000083306040518463ffffffff1660e01b8152600401610a7593929190612da0565b6020604051808303816000875af1158015610a94573d6000803e3d6000fd5b505050506040513d601f19601f82011682018060405250810190610ab89190612d73565b50610b0b610ac4610c8c565b827f000000000000000000000000000000000000000000000000000000000000000073ffffffffffffffffffffffffffffffffffffffff16611a029092919063ffffffff16565b8091505090565b6000610b2583610b20611569565b61167b565b9050610b30816116ca565b610b7d3330857f000000000000000000000000000000000000000000000000000000000000000073ffffffffffffffffffffffffffffffffffffffff166120a3909392919063ffffffff16565b610b856118de565b73ffffffffffffffffffffffffffffffffffffffff1663617ba0377f0000000000000000000000000000000000000000000000000000000000000000853060bc6040518563ffffffff1660e01b8152600401610be49493929190612f03565b600060405180830381600087803b158015610bfe57600080fd5b505af1158015610c12573d6000803e3d6000fd5b50505050610c20828261212c565b8173ffffffffffffffffffffffffffffffffffffffff163373ffffffffffffffffffffffffffffffffffffffff167fdef5cc95ad9b1c65c586d0fce815ec764b575719636edf58ff2553ae6f1104528386604051610c7f929190612dd7565b60405180910390a3505050565b6000600560009054906101000a900473ffffffffffffffffffffffffffffffffffffffff16905090565b606060048054610cc590612e2f565b80601f0160208091040260200160405190810160405280929190818152602001828054610cf190612e2f565b8015610d3e5780601f10610d1357610100808354040283529160200191610d3e565b820191906000526020600020905b815481529060010190602001808311610d2157829003601f168201915b5050505050905090565b610d50611f5f565b610d5983612283565b610d8482828573ffffffffffffffffffffffffffffffffffffffff16611a029092919063ffffffff16565b8273ffffffffffffffffffffffffffffffffffffffff168273ffffffffffffffffffffffffffffffffffffffff163373ffffffffffffffffffffffffffffffffffffffff167f29fcb7bb954d37295343e742bab21760748bdba4e026e4469a8100183996913884604051610df891906128d0565b60405180910390a4505050565b7f000000000000000000000000000000000000000000000000000000000000000081565b600080610e34611a88565b90506000610e428286611087565b905083811015610e87576040517f08c379a0000000000000000000000000000000000000000000000000000000008152600401610e7e90612fba565b60405180910390fd5b610e948286868403611a90565b60019250505092915050565b600080610eab611a88565b9050610eb8818585611ce7565b600191505092915050565b610ecb611f5f565b610ed483612283565b610eff82828573ffffffffffffffffffffffffffffffffffffffff166123159092919063ffffffff16565b8273ffffffffffffffffffffffffffffffffffffffff168273ffffffffffffffffffffffffffffffffffffffff163373ffffffffffffffffffffffffffffffffffffffff167fb950f35bebfc57c18eb18b27fa6295af1f3f33aaf918012ecb50ab2238ef4dae84604051610f7391906128d0565b60405180910390a4505050565b6000610f9b610f8e8361090d565b610f96611569565b612427565b9050919050565b60007f0000000000000000000000000000000000000000000000000000000000000000905090565b610fd2611f5f565b610fdb83612283565b61100682828573ffffffffffffffffffffffffffffffffffffffff166124769092919063ffffffff16565b8273ffffffffffffffffffffffffffffffffffffffff168273ffffffffffffffffffffffffffffffffffffffff163373ffffffffffffffffffffffffffffffffffffffff167fbde560dd72188a103801403edfa1655a8453dc173e65955668846925d687afe78460405161107a91906128d0565b60405180910390a4505050565b6000600160008473ffffffffffffffffffffffffffffffffffffffff1673ffffffffffffffffffffffffffffffffffffffff16815260200190815260200160002060008373ffffffffffffffffffffffffffffffffffffffff1673ffffffffffffffffffffffffffffffffffffffff16815260200190815260200160002054905092915050565b611116611f5f565b600073ffffffffffffffffffffffffffffffffffffffff168173ffffffffffffffffffffffffffffffffffffffff161415611186576040517f08c379a000000000000000000000000000000000000000000000000000000000815260040161117d90613026565b60405180910390fd5b6000600167ffffffffffffffff8111156111a3576111a2613046565b5b6040519080825280602002602001820160405280156111d15781602001602082028036833780820191505090505b5090507f00000000000000000000000000000000000000000000000000000000000000008160008151811061120957611208613075565b5b602002602001019073ffffffffffffffffffffffffffffffffffffffff16908173ffffffffffffffffffffffffffffffffffffffff16815250506000807f000000000000000000000000000000000000000000000000000000000000000073ffffffffffffffffffffffffffffffffffffffff1663bb492bf584866040518363ffffffff1660e01b81526004016112a1929190613162565b6000604051808303816000875af11580156112c0573d6000803e3d6000fd5b505050506040513d6000823e3d601f19601f820116820180604052508101906112e99190613383565b915091508373ffffffffffffffffffffffffffffffffffffffff163373ffffffffffffffffffffffffffffffffffffffff167f16b67bee17bd6fd679caacc21ffa680d8cf251cbf879eb3b6ef84716100c15ff848460405161134c9291906134b9565b60405180910390a350505050565b7f000000000000000000000000000000000000000000000000000000000000000081565b611386611f5f565b600073ffffffffffffffffffffffffffffffffffffffff168173ffffffffffffffffffffffffffffffffffffffff1614156113f6576040517f08c379a00000000000000000000000000000000000000000000000000000000081526004016113ed90613562565b60405180910390fd5b6113ff81611fdd565b50565b600081148061148c575060008373ffffffffffffffffffffffffffffffffffffffff1663dd62ed3e30856040518363ffffffff1660e01b8152600401611449929190613582565b602060405180830381865afa158015611466573d6000803e3d6000fd5b505050506040513d601f19601f8201168201806040525081019061148a9190612d73565b145b6114cb576040517f08c379a00000000000000000000000000000000000000000000000000000000081526004016114c29061361d565b60405180910390fd5b61154c8363095ea7b360e01b84846040516024016114ea92919061363d565b604051602081830303815290604052907bffffffffffffffffffffffffffffffffffffffffffffffffffffffff19166020820180517bffffffffffffffffffffffffffffffffffffffffffffffffffffffff83818316178352505050506125c2565b505050565b6060611560848460008561268a565b90509392505050565b600080611574610851565b90506000811461165357807f000000000000000000000000000000000000000000000000000000000000000073ffffffffffffffffffffffffffffffffffffffff166370a08231306040518263ffffffff1660e01b81526004016115d89190612bfa565b602060405180830381865afa1580156115f5573d6000803e3d6000fd5b505050506040513d601f19601f820116820180604052508101906116199190612d73565b7f00000000000000000000000000000000000000000000000000000000000000006116449190613666565b61164e91906136ef565b611675565b7f00000000000000000000000000000000000000000000000000000000000000005b91505090565b60008083146116c057817f0000000000000000000000000000000000000000000000000000000000000000846116b19190613666565b6116bb91906136ef565b6116c2565b825b905092915050565b6000811161170d576040517f08c379a00000000000000000000000000000000000000000000000000000000081526004016117049061376c565b60405180910390fd5b50565b600073ffffffffffffffffffffffffffffffffffffffff168273ffffffffffffffffffffffffffffffffffffffff161415611780576040517f08c379a0000000000000000000000000000000000000000000000000000000008152600401611777906137fe565b60405180910390fd5b61178c82600083612757565b60008060008473ffffffffffffffffffffffffffffffffffffffff1673ffffffffffffffffffffffffffffffffffffffff16815260200190815260200160002054905081811015611812576040517f08c379a000000000000000000000000000000000000000000000000000000000815260040161180990613890565b60405180910390fd5b8181036000808573ffffffffffffffffffffffffffffffffffffffff1673ffffffffffffffffffffffffffffffffffffffff1681526020019081526020016000208190555081600260008282540392505081905550600073ffffffffffffffffffffffffffffffffffffffff168373ffffffffffffffffffffffffffffffffffffffff167fddf252ad1be2c89b69c2b068fc378daa952ba7f163c4a11628f55a4df523b3ef846040516118c591906128d0565b60405180910390a36118d98360008461275c565b505050565b60007f000000000000000000000000000000000000000000000000000000000000000073ffffffffffffffffffffffffffffffffffffffff1663365ccbbf6040518163ffffffff1660e01b8152600401600060405180830381865afa15801561194b573d6000803e3d6000fd5b505050506040513d6000823e3d601f19601f8201168201806040525081019061197491906138b0565b60008151811061198757611986613075565b5b602002602001015173ffffffffffffffffffffffffffffffffffffffff1663026b1d5f6040518163ffffffff1660e01b8152600401602060405180830381865afa1580156119d9573d6000803e3d6000fd5b505050506040513d601f19601f820116820180604052508101906119fd91906138f9565b905090565b611a838363a9059cbb60e01b8484604051602401611a2192919061363d565b604051602081830303815290604052907bffffffffffffffffffffffffffffffffffffffffffffffffffffffff19166020820180517bffffffffffffffffffffffffffffffffffffffffffffffffffffffff83818316178352505050506125c2565b505050565b600033905090565b600073ffffffffffffffffffffffffffffffffffffffff168373ffffffffffffffffffffffffffffffffffffffff161415611b00576040517f08c379a0000000000000000000000000000000000000000000000000000000008152600401611af790613998565b60405180910390fd5b600073ffffffffffffffffffffffffffffffffffffffff168273ffffffffffffffffffffffffffffffffffffffff161415611b70576040517f08c379a0000000000000000000000000000000000000000000000000000000008152600401611b6790613a2a565b60405180910390fd5b80600160008573ffffffffffffffffffffffffffffffffffffffff1673ffffffffffffffffffffffffffffffffffffffff16815260200190815260200160002060008473ffffffffffffffffffffffffffffffffffffffff1673ffffffffffffffffffffffffffffffffffffffff168152602001908152602001600020819055508173ffffffffffffffffffffffffffffffffffffffff168373ffffffffffffffffffffffffffffffffffffffff167f8c5be1e5ebec7d5bd14f71427d1e84f3dd0314c0f7b2291e5b200ac8c7c3b92583604051611c4e91906128d0565b60405180910390a3505050565b6000611c678484611087565b90507fffffffffffffffffffffffffffffffffffffffffffffffffffffffffffffffff8114611ce15781811015611cd3576040517f08c379a0000000000000000000000000000000000000000000000000000000008152600401611cca90613a96565b60405180910390fd5b611ce08484848403611a90565b5b50505050565b600073ffffffffffffffffffffffffffffffffffffffff168373ffffffffffffffffffffffffffffffffffffffff161415611d57576040517f08c379a0000000000000000000000000000000000000000000000000000000008152600401611d4e90613b28565b60405180910390fd5b600073ffffffffffffffffffffffffffffffffffffffff168273ffffffffffffffffffffffffffffffffffffffff161415611dc7576040517f08c379a0000000000000000000000000000000000000000000000000000000008152600401611dbe90613bba565b60405180910390fd5b611dd2838383612757565b60008060008573ffffffffffffffffffffffffffffffffffffffff1673ffffffffffffffffffffffffffffffffffffffff16815260200190815260200160002054905081811015611e58576040517f08c379a0000000000000000000000000000000000000000000000000000000008152600401611e4f90613c4c565b60405180910390fd5b8181036000808673ffffffffffffffffffffffffffffffffffffffff1673ffffffffffffffffffffffffffffffffffffffff16815260200190815260200160002081905550816000808573ffffffffffffffffffffffffffffffffffffffff1673ffffffffffffffffffffffffffffffffffffffff168152602001908152602001600020600082825401925050819055508273ffffffffffffffffffffffffffffffffffffffff168473ffffffffffffffffffffffffffffffffffffffff167fddf252ad1be2c89b69c2b068fc378daa952ba7f163c4a11628f55a4df523b3ef84604051611f4691906128d0565b60405180910390a3611f5984848461275c565b50505050565b611f67611a88565b73ffffffffffffffffffffffffffffffffffffffff16611f85610c8c565b73ffffffffffffffffffffffffffffffffffffffff1614611fdb576040517f08c379a0000000000000000000000000000000000000000000000000000000008152600401611fd290613cb8565b60405180910390fd5b565b6000600560009054906101000a900473ffffffffffffffffffffffffffffffffffffffff16905081600560006101000a81548173ffffffffffffffffffffffffffffffffffffffff021916908373ffffffffffffffffffffffffffffffffffffffff1602179055508173ffffffffffffffffffffffffffffffffffffffff168173ffffffffffffffffffffffffffffffffffffffff167f8be0079c531659141344cd1fd0a4f28419497f9722a3daafe3b4186f6b6457e060405160405180910390a35050565b612126846323b872dd60e01b8585856040516024016120c493929190613cd8565b604051602081830303815290604052907bffffffffffffffffffffffffffffffffffffffffffffffffffffffff19166020820180517bffffffffffffffffffffffffffffffffffffffffffffffffffffffff83818316178352505050506125c2565b50505050565b600073ffffffffffffffffffffffffffffffffffffffff168273ffffffffffffffffffffffffffffffffffffffff16141561219c576040517f08c379a000000000000000000000000000000000000000000000000000000000815260040161219390613d5b565b60405180910390fd5b6121a860008383612757565b80600260008282546121ba9190612e90565b92505081905550806000808473ffffffffffffffffffffffffffffffffffffffff1673ffffffffffffffffffffffffffffffffffffffff168152602001908152602001600020600082825401925050819055508173ffffffffffffffffffffffffffffffffffffffff16600073ffffffffffffffffffffffffffffffffffffffff167fddf252ad1be2c89b69c2b068fc378daa952ba7f163c4a11628f55a4df523b3ef8360405161226b91906128d0565b60405180910390a361227f6000838361275c565b5050565b7f000000000000000000000000000000000000000000000000000000000000000073ffffffffffffffffffffffffffffffffffffffff168173ffffffffffffffffffffffffffffffffffffffff161415612312576040517f08c379a000000000000000000000000000000000000000000000000000000000815260040161230990613dc7565b60405180910390fd5b50565b60008373ffffffffffffffffffffffffffffffffffffffff1663dd62ed3e30856040518363ffffffff1660e01b8152600401612352929190613582565b602060405180830381865afa15801561236f573d6000803e3d6000fd5b505050506040513d601f19601f820116820180604052508101906123939190612d73565b90506124218463095ea7b360e01b8585856123ae9190612e90565b6040516024016123bf92919061363d565b604051602081830303815290604052907bffffffffffffffffffffffffffffffffffffffffffffffffffffffff19166020820180517bffffffffffffffffffffffffffffffffffffffffffffffffffffffff83818316178352505050506125c2565b50505050565b600080831461246c577f0000000000000000000000000000000000000000000000000000000000000000828461245d9190613666565b61246791906136ef565b61246e565b825b905092915050565b60008373ffffffffffffffffffffffffffffffffffffffff1663dd62ed3e30856040518363ffffffff1660e01b81526004016124b3929190613582565b602060405180830381865afa1580156124d0573d6000803e3d6000fd5b505050506040513d601f19601f820116820180604052508101906124f49190612d73565b905081811015612539576040517f08c379a000000000000000000000000000000000000000000000000000000000815260040161253090613e59565b60405180910390fd5b6125bc8463095ea7b360e01b8585850360405160240161255a92919061363d565b604051602081830303815290604052907bffffffffffffffffffffffffffffffffffffffffffffffffffffffff19166020820180517bffffffffffffffffffffffffffffffffffffffffffffffffffffffff83818316178352505050506125c2565b50505050565b6000612624826040518060400160405280602081526020017f5361666545524332303a206c6f772d6c6576656c2063616c6c206661696c65648152508573ffffffffffffffffffffffffffffffffffffffff166115519092919063ffffffff16565b90506000815114806126465750808060200190518101906126459190613ea5565b5b612685576040517f08c379a000000000000000000000000000000000000000000000000000000000815260040161267c90613f44565b60405180910390fd5b505050565b6060824710156126cf576040517f08c379a00000000000000000000000000000000000000000000000000000000081526004016126c690613fd6565b60405180910390fd5b6000808673ffffffffffffffffffffffffffffffffffffffff1685876040516126f8919061403d565b60006040518083038185875af1925050503d8060008114612735576040519150601f19603f3d011682016040523d82523d6000602084013e61273a565b606091505b509150915061274b87838387612761565b92505050949350505050565b505050565b505050565b606083156127c4576000835114156127bc5761277c856127d7565b6127bb576040517f08c379a00000000000000000000000000000000000000000000000000000000081526004016127b2906140a0565b60405180910390fd5b5b8290506127cf565b6127ce83836127fa565b5b949350505050565b6000808273ffffffffffffffffffffffffffffffffffffffff163b119050919050565b60008251111561280d5781518083602001fd5b806040517f08c379a00000000000000000000000000000000000000000000000000000000081526004016128419190612984565b60405180910390fd5b6000604051905090565b600080fd5b600080fd5b6000819050919050565b6128718161285e565b811461287c57600080fd5b50565b60008135905061288e81612868565b92915050565b6000602082840312156128aa576128a9612854565b5b60006128b88482850161287f565b91505092915050565b6128ca8161285e565b82525050565b60006020820190506128e560008301846128c1565b92915050565b600081519050919050565b600082825260208201905092915050565b60005b8381101561292557808201518184015260208101905061290a565b83811115612934576000848401525b50505050565b6000601f19601f8301169050919050565b6000612956826128eb565b61296081856128f6565b9350612970818560208601612907565b6129798161293a565b840191505092915050565b6000602082019050818103600083015261299e818461294b565b905092915050565b600073ffffffffffffffffffffffffffffffffffffffff82169050919050565b60006129d1826129a6565b9050919050565b6129e1816129c6565b81146129ec57600080fd5b50565b6000813590506129fe816129d8565b92915050565b60008060408385031215612a1b57612a1a612854565b5b6000612a29858286016129ef565b9250506020612a3a8582860161287f565b9150509250929050565b60008115159050919050565b612a5981612a44565b82525050565b6000602082019050612a746000830184612a50565b92915050565b600080600060608486031215612a9357612a92612854565b5b6000612aa1868287016129ef565b9350506020612ab2868287016129ef565b9250506040612ac38682870161287f565b9150509250925092565b600060ff82169050919050565b612ae381612acd565b82525050565b6000602082019050612afe6000830184612ada565b92915050565b6000819050919050565b6000612b29612b24612b1f846129a6565b612b04565b6129a6565b9050919050565b6000612b3b82612b0e565b9050919050565b6000612b4d82612b30565b9050919050565b612b5d81612b42565b82525050565b6000602082019050612b786000830184612b54565b92915050565b600060208284031215612b9457612b93612854565b5b6000612ba2848285016129ef565b91505092915050565b60008060408385031215612bc257612bc1612854565b5b6000612bd08582860161287f565b9250506020612be1858286016129ef565b9150509250929050565b612bf4816129c6565b82525050565b6000602082019050612c0f6000830184612beb565b92915050565b6000612c20826129c6565b9050919050565b612c3081612c15565b8114612c3b57600080fd5b50565b600081359050612c4d81612c27565b92915050565b600080600060608486031215612c6c57612c6b612854565b5b6000612c7a86828701612c3e565b9350506020612c8b868287016129ef565b9250506040612c9c8682870161287f565b9150509250925092565b6000612cb182612b30565b9050919050565b612cc181612ca6565b82525050565b6000602082019050612cdc6000830184612cb8565b92915050565b60008060408385031215612cf957612cf8612854565b5b6000612d07858286016129ef565b9250506020612d18858286016129ef565b9150509250929050565b6000612d2d82612b30565b9050919050565b612d3d81612d22565b82525050565b6000602082019050612d586000830184612d34565b92915050565b600081519050612d6d81612868565b92915050565b600060208284031215612d8957612d88612854565b5b6000612d9784828501612d5e565b91505092915050565b6000606082019050612db56000830186612beb565b612dc260208301856128c1565b612dcf6040830184612beb565b949350505050565b6000604082019050612dec60008301856128c1565b612df960208301846128c1565b9392505050565b7f4e487b7100000000000000000000000000000000000000000000000000000000600052602260045260246000fd5b60006002820490506001821680612e4757607f821691505b60208210811415612e5b57612e5a612e00565b5b50919050565b7f4e487b7100000000000000000000000000000000000000000000000000000000600052601160045260246000fd5b6000612e9b8261285e565b9150612ea68361285e565b9250827fffffffffffffffffffffffffffffffffffffffffffffffffffffffffffffffff03821115612edb57612eda612e61565b5b828201905092915050565b600061ffff82169050919050565b612efd81612ee6565b82525050565b6000608082019050612f186000830187612beb565b612f2560208301866128c1565b612f326040830185612beb565b612f3f6060830184612ef4565b95945050505050565b7f45524332303a2064656372656173656420616c6c6f77616e63652062656c6f7760008201527f207a65726f000000000000000000000000000000000000000000000000000000602082015250565b6000612fa46025836128f6565b9150612faf82612f48565b604082019050919050565b60006020820190508181036000830152612fd381612f97565b9050919050565b7f41617665563359532f70617965652d6e6f742d7a65726f2d6164647265737300600082015250565b6000613010601f836128f6565b915061301b82612fda565b602082019050919050565b6000602082019050818103600083015261303f81613003565b9050919050565b7f4e487b7100000000000000000000000000000000000000000000000000000000600052604160045260246000fd5b7f4e487b7100000000000000000000000000000000000000000000000000000000600052603260045260246000fd5b600081519050919050565b600082825260208201905092915050565b6000819050602082019050919050565b6130d9816129c6565b82525050565b60006130eb83836130d0565b60208301905092915050565b6000602082019050919050565b600061310f826130a4565b61311981856130af565b9350613124836130c0565b8060005b8381101561315557815161313c88826130df565b9750613147836130f7565b925050600181019050613128565b5085935050505092915050565b6000604082019050818103600083015261317c8185613104565b905061318b6020830184612beb565b9392505050565b600080fd5b6131a08261293a565b810181811067ffffffffffffffff821117156131bf576131be613046565b5b80604052505050565b60006131d261284a565b90506131de8282613197565b919050565b600067ffffffffffffffff8211156131fe576131fd613046565b5b602082029050602081019050919050565b600080fd5b600081519050613223816129d8565b92915050565b600061323c613237846131e3565b6131c8565b9050808382526020820190506020840283018581111561325f5761325e61320f565b5b835b8181101561328857806132748882613214565b845260208401935050602081019050613261565b5050509392505050565b600082601f8301126132a7576132a6613192565b5b81516132b7848260208601613229565b91505092915050565b600067ffffffffffffffff8211156132db576132da613046565b5b602082029050602081019050919050565b60006132ff6132fa846132c0565b6131c8565b905080838252602082019050602084028301858111156133225761332161320f565b5b835b8181101561334b57806133378882612d5e565b845260208401935050602081019050613324565b5050509392505050565b600082601f83011261336a57613369613192565b5b815161337a8482602086016132ec565b91505092915050565b6000806040838503121561339a57613399612854565b5b600083015167ffffffffffffffff8111156133b8576133b7612859565b5b6133c485828601613292565b925050602083015167ffffffffffffffff8111156133e5576133e4612859565b5b6133f185828601613355565b9150509250929050565b600081519050919050565b600082825260208201905092915050565b6000819050602082019050919050565b6134308161285e565b82525050565b60006134428383613427565b60208301905092915050565b6000602082019050919050565b6000613466826133fb565b6134708185613406565b935061347b83613417565b8060005b838110156134ac5781516134938882613436565b975061349e8361344e565b92505060018101905061347f565b5085935050505092915050565b600060408201905081810360008301526134d38185613104565b905081810360208301526134e7818461345b565b90509392505050565b7f4f776e61626c653a206e6577206f776e657220697320746865207a65726f206160008201527f6464726573730000000000000000000000000000000000000000000000000000602082015250565b600061354c6026836128f6565b9150613557826134f0565b604082019050919050565b6000602082019050818103600083015261357b8161353f565b9050919050565b60006040820190506135976000830185612beb565b6135a46020830184612beb565b9392505050565b7f5361666545524332303a20617070726f76652066726f6d206e6f6e2d7a65726f60008201527f20746f206e6f6e2d7a65726f20616c6c6f77616e636500000000000000000000602082015250565b60006136076036836128f6565b9150613612826135ab565b604082019050919050565b60006020820190508181036000830152613636816135fa565b9050919050565b60006040820190506136526000830185612beb565b61365f60208301846128c1565b9392505050565b60006136718261285e565b915061367c8361285e565b9250817fffffffffffffffffffffffffffffffffffffffffffffffffffffffffffffffff04831182151516156136b5576136b4612e61565b5b828202905092915050565b7f4e487b7100000000000000000000000000000000000000000000000000000000600052601260045260246000fd5b60006136fa8261285e565b91506137058361285e565b925082613715576137146136c0565b5b828204905092915050565b7f41617665563359532f7368617265732d67742d7a65726f000000000000000000600082015250565b60006137566017836128f6565b915061376182613720565b602082019050919050565b6000602082019050818103600083015261378581613749565b9050919050565b7f45524332303a206275726e2066726f6d20746865207a65726f2061646472657360008201527f7300000000000000000000000000000000000000000000000000000000000000602082015250565b60006137e86021836128f6565b91506137f38261378c565b604082019050919050565b60006020820190508181036000830152613817816137db565b9050919050565b7f45524332303a206275726e20616d6f756e7420657863656564732062616c616e60008201527f6365000000000000000000000000000000000000000000000000000000000000602082015250565b600061387a6022836128f6565b91506138858261381e565b604082019050919050565b600060208201905081810360008301526138a98161386d565b9050919050565b6000602082840312156138c6576138c5612854565b5b600082015167ffffffffffffffff8111156138e4576138e3612859565b5b6138f084828501613292565b91505092915050565b60006020828403121561390f5761390e612854565b5b600061391d84828501613214565b91505092915050565b7f45524332303a20617070726f76652066726f6d20746865207a65726f2061646460008201527f7265737300000000000000000000000000000000000000000000000000000000602082015250565b60006139826024836128f6565b915061398d82613926565b604082019050919050565b600060208201905081810360008301526139b181613975565b9050919050565b7f45524332303a20617070726f766520746f20746865207a65726f20616464726560008201527f7373000000000000000000000000000000000000000000000000000000000000602082015250565b6000613a146022836128f6565b9150613a1f826139b8565b604082019050919050565b60006020820190508181036000830152613a4381613a07565b9050919050565b7f45524332303a20696e73756666696369656e7420616c6c6f77616e6365000000600082015250565b6000613a80601d836128f6565b9150613a8b82613a4a565b602082019050919050565b60006020820190508181036000830152613aaf81613a73565b9050919050565b7f45524332303a207472616e736665722066726f6d20746865207a65726f20616460008201527f6472657373000000000000000000000000000000000000000000000000000000602082015250565b6000613b126025836128f6565b9150613b1d82613ab6565b604082019050919050565b60006020820190508181036000830152613b4181613b05565b9050919050565b7f45524332303a207472616e7366657220746f20746865207a65726f206164647260008201527f6573730000000000000000000000000000000000000000000000000000000000602082015250565b6000613ba46023836128f6565b9150613baf82613b48565b604082019050919050565b60006020820190508181036000830152613bd381613b97565b9050919050565b7f45524332303a207472616e7366657220616d6f756e742065786365656473206260008201527f616c616e63650000000000000000000000000000000000000000000000000000602082015250565b6000613c366026836128f6565b9150613c4182613bda565b604082019050919050565b60006020820190508181036000830152613c6581613c29565b9050919050565b7f4f776e61626c653a2063616c6c6572206973206e6f7420746865206f776e6572600082015250565b6000613ca26020836128f6565b9150613cad82613c6c565b602082019050919050565b60006020820190508181036000830152613cd181613c95565b9050919050565b6000606082019050613ced6000830186612beb565b613cfa6020830185612beb565b613d0760408301846128c1565b949350505050565b7f45524332303a206d696e7420746f20746865207a65726f206164647265737300600082015250565b6000613d45601f836128f6565b9150613d5082613d0f565b602082019050919050565b60006020820190508181036000830152613d7481613d38565b9050919050565b7f41617665563359532f666f726269642d61546f6b656e2d6368616e6765000000600082015250565b6000613db1601d836128f6565b9150613dbc82613d7b565b602082019050919050565b60006020820190508181036000830152613de081613da4565b9050919050565b7f5361666545524332303a2064656372656173656420616c6c6f77616e6365206260008201527f656c6f77207a65726f0000000000000000000000000000000000000000000000602082015250565b6000613e436029836128f6565b9150613e4e82613de7565b604082019050919050565b60006020820190508181036000830152613e7281613e36565b9050919050565b613e8281612a44565b8114613e8d57600080fd5b50565b600081519050613e9f81613e79565b92915050565b600060208284031215613ebb57613eba612854565b5b6000613ec984828501613e90565b91505092915050565b7f5361666545524332303a204552433230206f7065726174696f6e20646964206e60008201527f6f74207375636365656400000000000000000000000000000000000000000000602082015250565b6000613f2e602a836128f6565b9150613f3982613ed2565b604082019050919050565b60006020820190508181036000830152613f5d81613f21565b9050919050565b7f416464726573733a20696e73756666696369656e742062616c616e636520666f60008201527f722063616c6c0000000000000000000000000000000000000000000000000000602082015250565b6000613fc06026836128f6565b9150613fcb82613f64565b604082019050919050565b60006020820190508181036000830152613fef81613fb3565b9050919050565b600081519050919050565b600081905092915050565b600061401782613ff6565b6140218185614001565b9350614031818560208601612907565b80840191505092915050565b6000614049828461400c565b915081905092915050565b7f416464726573733a2063616c6c20746f206e6f6e2d636f6e7472616374000000600082015250565b600061408a601d836128f6565b915061409582614054565b602082019050919050565b600060208201905081810360008301526140b98161407d565b905091905056fea2646970667358221220bffad4ab38f63bac24356a69898b3541bc89e05e1b41b35c8361f9688f9b0ff164736f6c634300080a0033",
  "devdoc": {
    "details": "This contract inherits from the ERC20 implementation to keep track of users deposits.",
    "events": {
      "AaveV3YieldSourceInitialized(address,address,address,string,string,uint8,address)": {
        "params": {
          "aToken": "Aave aToken address",
          "decimals": "Number of decimals the shares (inherited ERC20) will have. Same as underlying asset to ensure sane exchange rates for shares.",
          "name": "Token name for the underlying ERC20 shares",
          "owner": "Owner of this contract",
          "poolAddressesProviderRegistry": "Aave poolAddressesProviderRegistry address",
          "rewardsController": "Aave rewardsController address",
          "symbol": "Token symbol for the underlying ERC20 shares"
        }
      },
      "Claimed(address,address,address[],uint256[])": {
        "params": {
          "claimedAmounts": "List that contains the claimed amount per reward token",
          "from": "Address who claimed the rewards",
          "rewardsList": "List of addresses of the reward tokens",
          "to": "Address that received the rewards"
        }
      },
      "DecreasedERC20Allowance(address,address,uint256,address)": {
        "params": {
          "amount": "Amount of `token` to decrease allowance by",
          "from": "Address of the caller",
          "spender": "Address of the spender",
          "token": "Address of the ERC20 token to decrease allowance for"
        }
      },
      "IncreasedERC20Allowance(address,address,uint256,address)": {
        "params": {
          "amount": "Amount of `token` to increase allowance by",
          "from": "Address of the caller",
          "spender": "Address of the spender",
          "token": "Address of the ERC20 token to increase allowance for"
        }
      },
      "RedeemedToken(address,uint256,uint256)": {
        "params": {
          "amount": "Amount of tokens redeemed",
          "from": "Address who redeemed the tokens",
          "shares": "Amount of shares burnt"
        }
      },
      "SuppliedTokenTo(address,uint256,uint256,address)": {
        "params": {
          "amount": "Amount of tokens supplied",
          "from": "Address that supplied the tokens",
          "shares": "Amount of shares minted to the user",
          "to": "Address that received the shares"
        }
      },
      "TransferredERC20(address,address,uint256,address)": {
        "params": {
          "amount": "Amount of `token` transferred",
          "from": "Address of the caller",
          "to": "Address of the recipient",
          "token": "Address of the ERC20 token transferred"
        }
      }
    },
    "kind": "dev",
    "methods": {
      "allowance(address,address)": {
        "details": "See {IERC20-allowance}."
      },
      "approve(address,uint256)": {
        "details": "See {IERC20-approve}. NOTE: If `amount` is the maximum `uint256`, the allowance is not updated on `transferFrom`. This is semantically equivalent to an infinite approval. Requirements: - `spender` cannot be the zero address."
      },
      "balanceOf(address)": {
        "details": "See {IERC20-balanceOf}."
      },
      "balanceOfToken(address)": {
        "params": {
          "_user": "Address of the user to get balance of token for"
        },
        "returns": {
          "_0": "The underlying balance of asset tokens."
        }
      },
      "claimRewards(address)": {
        "details": "Only callable by the owner or manager.",
        "params": {
          "_to": "Address where the claimed rewards will be sent"
        }
      },
      "constructor": {
        "params": {
          "_aToken": "Aave aToken address",
          "_name": "Token name for the underlying ERC20 shares",
          "_owner": "Owner of this contract",
          "_poolAddressesProviderRegistry": "Aave poolAddressesProviderRegistry address",
          "_rewardsController": "Aave rewardsController address",
          "_symbol": "Token symbol for the underlying ERC20 shares",
          "decimals_": "Number of decimals the shares (inherited ERC20) will have. Same as underlying asset to ensure sane exchange rates for shares."
        }
      },
      "decimals()": {
        "details": "This value should be equal to the decimals of the token used to deposit into the pool.",
        "returns": {
          "_0": "The number of decimals."
        }
      },
      "decreaseAllowance(address,uint256)": {
        "details": "Atomically decreases the allowance granted to `spender` by the caller. This is an alternative to {approve} that can be used as a mitigation for problems described in {IERC20-approve}. Emits an {Approval} event indicating the updated allowance. Requirements: - `spender` cannot be the zero address. - `spender` must have allowance for the caller of at least `subtractedValue`."
      },
      "decreaseERC20Allowance(address,address,uint256)": {
        "details": "This function is only callable by the owner or asset manager.Current allowance should be computed off-chain to avoid any underflow.",
        "params": {
          "_amount": "Amount of tokens to decrease allowance by",
          "_spender": "Address of the spender of the tokens",
          "_token": "Address of the ERC20 token to decrease allowance for"
        }
      },
      "depositToken()": {
        "returns": {
          "_0": "The ERC20 asset token address."
        }
      },
      "increaseAllowance(address,uint256)": {
        "details": "Atomically increases the allowance granted to `spender` by the caller. This is an alternative to {approve} that can be used as a mitigation for problems described in {IERC20-approve}. Emits an {Approval} event indicating the updated allowance. Requirements: - `spender` cannot be the zero address."
      },
      "increaseERC20Allowance(address,address,uint256)": {
        "details": "This function is only callable by the owner or asset manager.Allows another contract or address to withdraw funds from the yield source.Current allowance should be computed off-chain to avoid any overflow.",
        "params": {
          "_amount": "Amount of tokens to increase allowance by",
          "_spender": "Address of the spender of the tokens",
          "_token": "Address of the ERC20 token to increase allowance for"
        }
      },
      "name()": {
        "details": "Returns the name of the token."
      },
      "owner()": {
        "details": "Returns the address of the current owner."
      },
      "redeemToken(uint256)": {
        "details": "Shares corresponding to the number of tokens withdrawn are burnt from the user's balance.Asset tokens are withdrawn from Aave, then transferred from the yield source to the user's wallet.",
        "params": {
          "_redeemAmount": "The amount of asset tokens to be redeemed"
        },
        "returns": {
          "_0": "The actual amount of asset tokens that were redeemed."
        }
      },
      "renounceOwnership()": {
        "details": "Leaves the contract without owner. It will not be possible to call `onlyOwner` functions. Can only be called by the current owner. NOTE: Renouncing ownership will leave the contract without an owner, thereby disabling any functionality that is only available to the owner."
      },
      "supplyTokenTo(uint256,address)": {
        "details": "Shares corresponding to the number of tokens supplied are minted to the user's balance.Asset tokens are supplied to the yield source, then deposited into Aave.",
        "params": {
          "_depositAmount": "The amount of asset tokens to be supplied",
          "_to": "The user whose balance will receive the tokens"
        }
      },
      "symbol()": {
        "details": "Returns the symbol of the token, usually a shorter version of the name."
      },
      "totalSupply()": {
        "details": "See {IERC20-totalSupply}."
      },
      "transfer(address,uint256)": {
        "details": "See {IERC20-transfer}. Requirements: - `to` cannot be the zero address. - the caller must have a balance of at least `amount`."
      },
      "transferERC20(address,address,uint256)": {
        "details": "This function is only callable by the owner or asset manager.",
        "params": {
          "_amount": "Amount of tokens to transfer",
          "_to": "Address of the recipient of the tokens",
          "_token": "Address of the ERC20 token to transfer"
        }
      },
      "transferFrom(address,address,uint256)": {
        "details": "See {IERC20-transferFrom}. Emits an {Approval} event indicating the updated allowance. This is not required by the EIP. See the note at the beginning of {ERC20}. NOTE: Does not update the allowance if the current allowance is the maximum `uint256`. Requirements: - `from` and `to` cannot be the zero address. - `from` must have a balance of at least `amount`. - the caller must have allowance for ``from``'s tokens of at least `amount`."
      },
      "transferOwnership(address)": {
        "details": "Transfers ownership of the contract to a new account (`newOwner`). Can only be called by the current owner."
      }
    },
    "stateVariables": {
      "ADDRESSES_PROVIDER_ID": {
        "details": "Aave genesis market PoolAddressesProvider's ID.This variable could evolve in the future if we decide to support other markets."
      },
      "REFERRAL_CODE": {
        "details": "PoolTogether's Aave Referral Code"
      }
    },
    "title": "Aave V3 Yield Source contract, implementing PoolTogether's generic yield source interface.",
    "version": 1
  },
  "userdoc": {
    "events": {
      "AaveV3YieldSourceInitialized(address,address,address,string,string,uint8,address)": {
        "notice": "Emitted when the yield source is initialized."
      },
      "Claimed(address,address,address[],uint256[])": {
        "notice": "Emitted when Aave rewards have been claimed."
      },
      "DecreasedERC20Allowance(address,address,uint256,address)": {
        "notice": "Emitted when decreasing allowance of ERC20 tokens other than yield source's aToken."
      },
      "IncreasedERC20Allowance(address,address,uint256,address)": {
        "notice": "Emitted when increasing allowance of ERC20 tokens other than yield source's aToken."
      },
      "RedeemedToken(address,uint256,uint256)": {
        "notice": "Emitted when asset tokens are redeemed from the yield source."
      },
      "SuppliedTokenTo(address,uint256,uint256,address)": {
        "notice": "Emitted when asset tokens are supplied to the yield source."
      },
      "TransferredERC20(address,address,uint256,address)": {
        "notice": "Emitted when ERC20 tokens other than yield source's aToken are withdrawn from the yield source."
      }
    },
    "kind": "user",
    "methods": {
      "aToken()": {
        "notice": "Yield-bearing Aave aToken address."
      },
      "balanceOfToken(address)": {
        "notice": "Returns user total balance (in asset tokens). This includes their deposit and interest."
      },
      "claimRewards(address)": {
        "notice": "Claims the accrued rewards for the aToken, accumulating any pending rewards."
      },
      "constructor": {
        "notice": "Initializes the yield source with Aave aToken."
      },
      "decimals()": {
        "notice": "Returns the Yield Source ERC20 token decimals."
      },
      "decreaseERC20Allowance(address,address,uint256)": {
        "notice": "Decrease allowance of ERC20 tokens other than the aTokens held by this contract."
      },
      "depositToken()": {
        "notice": "Returns the ERC20 asset token used for deposits."
      },
      "increaseERC20Allowance(address,address,uint256)": {
        "notice": "Increase allowance of ERC20 tokens other than the aTokens held by this contract."
      },
      "poolAddressesProviderRegistry()": {
        "notice": "Aave poolAddressesProviderRegistry address."
      },
      "redeemToken(uint256)": {
        "notice": "Redeems asset tokens from the yield source."
      },
      "rewardsController()": {
        "notice": "Aave RewardsController address."
      },
      "supplyTokenTo(uint256,address)": {
        "notice": "Supplies asset tokens to the yield source."
      },
      "transferERC20(address,address,uint256)": {
        "notice": "Transfer ERC20 tokens other than the aTokens held by this contract to the recipient address."
      }
    },
    "notice": "Yield Source for a PoolTogether prize pool that generates yield by depositing into Aave V3.",
    "version": 1
  },
  "storageLayout": {
    "storage": [
      {
        "astId": 2356,
        "contract": "contracts/AaveYieldSource.sol:AaveYieldSource",
        "label": "_balances",
        "offset": 0,
        "slot": "0",
        "type": "t_mapping(t_address,t_uint256)"
      },
      {
        "astId": 2362,
        "contract": "contracts/AaveYieldSource.sol:AaveYieldSource",
        "label": "_allowances",
        "offset": 0,
        "slot": "1",
        "type": "t_mapping(t_address,t_mapping(t_address,t_uint256))"
      },
      {
        "astId": 2364,
        "contract": "contracts/AaveYieldSource.sol:AaveYieldSource",
        "label": "_totalSupply",
        "offset": 0,
        "slot": "2",
        "type": "t_uint256"
      },
      {
        "astId": 2366,
        "contract": "contracts/AaveYieldSource.sol:AaveYieldSource",
        "label": "_name",
        "offset": 0,
        "slot": "3",
        "type": "t_string_storage"
      },
      {
        "astId": 2368,
        "contract": "contracts/AaveYieldSource.sol:AaveYieldSource",
        "label": "_symbol",
        "offset": 0,
        "slot": "4",
        "type": "t_string_storage"
      },
      {
        "astId": 2235,
        "contract": "contracts/AaveYieldSource.sol:AaveYieldSource",
        "label": "_owner",
        "offset": 0,
        "slot": "5",
        "type": "t_address"
      }
    ],
    "types": {
      "t_address": {
        "encoding": "inplace",
        "label": "address",
        "numberOfBytes": "20"
      },
      "t_mapping(t_address,t_mapping(t_address,t_uint256))": {
        "encoding": "mapping",
        "key": "t_address",
        "label": "mapping(address => mapping(address => uint256))",
        "numberOfBytes": "32",
        "value": "t_mapping(t_address,t_uint256)"
      },
      "t_mapping(t_address,t_uint256)": {
        "encoding": "mapping",
        "key": "t_address",
        "label": "mapping(address => uint256)",
        "numberOfBytes": "32",
        "value": "t_uint256"
      },
      "t_string_storage": {
        "encoding": "bytes",
        "label": "string",
        "numberOfBytes": "32"
      },
      "t_uint256": {
        "encoding": "inplace",
        "label": "uint256",
        "numberOfBytes": "32"
      }
    }
  }
}