{
  "address": "0xf09783d2b9b845a47de1aadF9d85898e6e1a26D4",
  "abi": [
    {
      "inputs": [
        {
          "internalType": "address",
          "name": "_usdcToken",
          "type": "address"
        },
        {
          "internalType": "address",
          "name": "_bitToken",
          "type": "address"
        },
        {
          "internalType": "address",
          "name": "_yieldContract",
          "type": "address"
        },
        {
          "internalType": "address",
          "name": "_rng",
          "type": "address"
        }
      ],
      "stateMutability": "nonpayable",
      "type": "constructor"
    },
    {
      "inputs": [
        {
          "internalType": "address",
          "name": "owner",
          "type": "address"
        }
      ],
      "name": "OwnableInvalidOwner",
      "type": "error"
    },
    {
      "inputs": [
        {
          "internalType": "address",
          "name": "account",
          "type": "address"
        }
      ],
      "name": "OwnableUnauthorizedAccount",
      "type": "error"
    },
    {
      "anonymous": false,
      "inputs": [
        {
          "indexed": true,
          "internalType": "address",
          "name": "user",
          "type": "address"
        },
        {
          "indexed": false,
          "internalType": "uint256",
          "name": "amount",
          "type": "uint256"
        }
      ],
      "name": "Deposited",
      "type": "event"
    },
    {
      "anonymous": false,
      "inputs": [],
      "name": "DrawStarted",
      "type": "event"
    },
    {
      "anonymous": false,
      "inputs": [],
      "name": "DrawStopped",
      "type": "event"
    },
    {
      "anonymous": false,
      "inputs": [
        {
          "indexed": true,
          "internalType": "address",
          "name": "previousOwner",
          "type": "address"
        },
        {
          "indexed": true,
          "internalType": "address",
          "name": "newOwner",
          "type": "address"
        }
      ],
      "name": "OwnershipTransferred",
      "type": "event"
    },
    {
      "anonymous": false,
      "inputs": [
        {
          "indexed": true,
          "internalType": "address",
          "name": "user",
          "type": "address"
        },
        {
          "indexed": false,
          "internalType": "uint256",
          "name": "amount",
          "type": "uint256"
        }
      ],
      "name": "Withdrawn",
      "type": "event"
    },
    {
      "anonymous": false,
      "inputs": [
        {
          "indexed": true,
          "internalType": "address",
          "name": "winner",
          "type": "address"
        },
        {
          "indexed": false,
          "internalType": "uint256",
          "name": "amount",
          "type": "uint256"
        }
      ],
      "name": "YieldDistributed",
      "type": "event"
    },
    {
      "inputs": [
        {
          "internalType": "address",
          "name": "",
          "type": "address"
        }
      ],
      "name": "balances",
      "outputs": [
        {
          "internalType": "uint256",
          "name": "",
          "type": "uint256"
        }
      ],
      "stateMutability": "view",
      "type": "function"
    },
    {
      "inputs": [],
      "name": "bitToken",
      "outputs": [
        {
          "internalType": "contract Bit",
          "name": "",
          "type": "address"
        }
      ],
      "stateMutability": "view",
      "type": "function"
    },
    {
      "inputs": [
        {
          "internalType": "uint256",
          "name": "amount",
          "type": "uint256"
        }
      ],
      "name": "deposit",
      "outputs": [],
      "stateMutability": "nonpayable",
      "type": "function"
    },
    {
      "inputs": [
        {
          "internalType": "uint256",
          "name": "",
          "type": "uint256"
        }
      ],
      "name": "depositors",
      "outputs": [
        {
          "internalType": "address",
          "name": "",
          "type": "address"
        }
      ],
      "stateMutability": "view",
      "type": "function"
    },
    {
      "inputs": [],
      "name": "isDrawActive",
      "outputs": [
        {
          "internalType": "bool",
          "name": "",
          "type": "bool"
        }
      ],
      "stateMutability": "view",
      "type": "function"
    },
    {
      "inputs": [],
      "name": "owner",
      "outputs": [
        {
          "internalType": "address",
          "name": "",
          "type": "address"
        }
      ],
      "stateMutability": "view",
      "type": "function"
    },
    {
      "inputs": [],
      "name": "renounceOwnership",
      "outputs": [],
      "stateMutability": "nonpayable",
      "type": "function"
    },
    {
      "inputs": [],
      "name": "rng",
      "outputs": [
        {
          "internalType": "contract RandomNumberGenerator",
          "name": "",
          "type": "address"
        }
      ],
      "stateMutability": "view",
      "type": "function"
    },
    {
      "inputs": [],
      "name": "startDraw",
      "outputs": [],
      "stateMutability": "nonpayable",
      "type": "function"
    },
    {
      "inputs": [],
      "name": "stopDraw",
      "outputs": [],
      "stateMutability": "nonpayable",
      "type": "function"
    },
    {
      "inputs": [],
      "name": "totalDeposits",
      "outputs": [
        {
          "internalType": "uint256",
          "name": "",
          "type": "uint256"
        }
      ],
      "stateMutability": "view",
      "type": "function"
    },
    {
      "inputs": [
        {
          "internalType": "address",
          "name": "newOwner",
          "type": "address"
        }
      ],
      "name": "transferOwnership",
      "outputs": [],
      "stateMutability": "nonpayable",
      "type": "function"
    },
    {
      "inputs": [],
      "name": "usdcToken",
      "outputs": [
        {
          "internalType": "contract IERC20",
          "name": "",
          "type": "address"
        }
      ],
      "stateMutability": "view",
      "type": "function"
    },
    {
      "inputs": [
        {
          "internalType": "uint256",
          "name": "amount",
          "type": "uint256"
        }
      ],
      "name": "withdraw",
      "outputs": [],
      "stateMutability": "nonpayable",
      "type": "function"
    },
    {
      "inputs": [],
      "name": "yieldContract",
      "outputs": [
        {
          "internalType": "contract IYieldContract",
          "name": "",
          "type": "address"
        }
      ],
      "stateMutability": "view",
      "type": "function"
    }
  ],
  "transactionHash": "0x8beff9c2b61fee895675fb59490ffde6ee100d5889e50d294d9bb9091ceaff03",
  "args": [
    "0xFb7cDF0Ee2De513ca49C19C963994B667E9Aa090",
    "0x96b6f51C9AdA762C6bc798eA8704360e4c314eb2",
    "0xbDd2aaC74c45AC669EB5248d1FbAcA5Ef6717cAE",
    "0xa4A29db61B0431fEF684ED006160555D87fE0147"
  ],
  "numDeployments": 1,
  "solcInputHash": "91f0d9b87ce599ab9c00ec5dcdcd1bfa",
  "bytecode": "0x608060405234801561001057600080fd5b50604051611f80380380611f8083398181016040528101906100329190610304565b33600073ffffffffffffffffffffffffffffffffffffffff168173ffffffffffffffffffffffffffffffffffffffff16036100a55760006040517f1e4fbdf700000000000000000000000000000000000000000000000000000000815260040161009c919061037a565b60405180910390fd5b6100b4816101dd60201b60201c565b5083600160006101000a81548173ffffffffffffffffffffffffffffffffffffffff021916908373ffffffffffffffffffffffffffffffffffffffff16021790555082600260006101000a81548173ffffffffffffffffffffffffffffffffffffffff021916908373ffffffffffffffffffffffffffffffffffffffff16021790555081600360006101000a81548173ffffffffffffffffffffffffffffffffffffffff021916908373ffffffffffffffffffffffffffffffffffffffff16021790555080600460006101000a81548173ffffffffffffffffffffffffffffffffffffffff021916908373ffffffffffffffffffffffffffffffffffffffff1602179055506000600660006101000a81548160ff02191690831515021790555050505050610395565b60008060009054906101000a900473ffffffffffffffffffffffffffffffffffffffff169050816000806101000a81548173ffffffffffffffffffffffffffffffffffffffff021916908373ffffffffffffffffffffffffffffffffffffffff1602179055508173ffffffffffffffffffffffffffffffffffffffff168173ffffffffffffffffffffffffffffffffffffffff167f8be0079c531659141344cd1fd0a4f28419497f9722a3daafe3b4186f6b6457e060405160405180910390a35050565b600080fd5b600073ffffffffffffffffffffffffffffffffffffffff82169050919050565b60006102d1826102a6565b9050919050565b6102e1816102c6565b81146102ec57600080fd5b50565b6000815190506102fe816102d8565b92915050565b6000806000806080858703121561031e5761031d6102a1565b5b600061032c878288016102ef565b945050602061033d878288016102ef565b935050604061034e878288016102ef565b925050606061035f878288016102ef565b91505092959194509250565b610374816102c6565b82525050565b600060208201905061038f600083018461036b565b92915050565b611bdc806103a46000396000f3fe608060405234801561001057600080fd5b50600436106100f55760003560e01c8063b6b55f2511610097578063e4b2fb7911610066578063e4b2fb791461022a578063f2fde38b1461025a578063fa1e8f1b14610276578063fc95eb0314610280576100f5565b8063b6b55f25146101b4578063c3206e13146101d0578063d605787b146101ee578063d84e9f921461020c576100f5565b80632e1a7d4d116100d35780632e1a7d4d14610152578063715018a61461016e5780637d882097146101785780638da5cb5b14610196576100f5565b806311eac855146100fa57806327e235e3146101185780632ae168a614610148575b600080fd5b61010261029e565b60405161010f91906114cb565b60405180910390f35b610132600480360381019061012d9190611529565b6102c4565b60405161013f919061156f565b60405180910390f35b6101506102dc565b005b61016c600480360381019061016791906115b6565b61037d565b005b610176610625565b005b610180610639565b60405161018d919061156f565b60405180910390f35b61019e61063f565b6040516101ab91906115f2565b60405180910390f35b6101ce60048036038101906101c991906115b6565b610668565b005b6101d861097e565b6040516101e5919061162e565b60405180910390f35b6101f66109a4565b604051610203919061166a565b60405180910390f35b6102146109ca565b60405161022191906116a6565b60405180910390f35b610244600480360381019061023f91906115b6565b6109f0565b60405161025191906115f2565b60405180910390f35b610274600480360381019061026f9190611529565b610a2f565b005b61027e610ab5565b005b610288610b5d565b60405161029591906116dc565b60405180910390f35b600160009054906101000a900473ffffffffffffffffffffffffffffffffffffffff1681565b60076020528060005260406000206000915090505481565b6102e4610b70565b600660009054906101000a900460ff1615610334576040517f08c379a000000000000000000000000000000000000000000000000000000000815260040161032b90611754565b60405180910390fd5b6001600660006101000a81548160ff0219169083151502179055507f0fd3215fb38f4c3605b0b32862733cc4671a5f0271e027bdb193b8e6f813eda060405160405180910390a1565b600660009054906101000a900460ff166103cc576040517f08c379a00000000000000000000000000000000000000000000000000000000081526004016103c3906117c0565b60405180910390fd5b80600760003373ffffffffffffffffffffffffffffffffffffffff1673ffffffffffffffffffffffffffffffffffffffff16815260200190815260200160002054101561044e576040517f08c379a00000000000000000000000000000000000000000000000000000000081526004016104459061182c565b60405180910390fd5b80600760003373ffffffffffffffffffffffffffffffffffffffff1673ffffffffffffffffffffffffffffffffffffffff168152602001908152602001600020600082825461049d919061187b565b92505081905550600260009054906101000a900473ffffffffffffffffffffffffffffffffffffffff1673ffffffffffffffffffffffffffffffffffffffff16639dc29fac33836040518363ffffffff1660e01b81526004016105019291906118af565b600060405180830381600087803b15801561051b57600080fd5b505af115801561052f573d6000803e3d6000fd5b50505050600160009054906101000a900473ffffffffffffffffffffffffffffffffffffffff1673ffffffffffffffffffffffffffffffffffffffff1663a9059cbb33836040518363ffffffff1660e01b81526004016105909291906118af565b6020604051808303816000875af11580156105af573d6000803e3d6000fd5b505050506040513d601f19601f820116820180604052508101906105d39190611904565b503373ffffffffffffffffffffffffffffffffffffffff167f7084f5476618d8e60b11ef0d7d3f06914655adb8793e28ff7f018d4c76d505d58260405161061a919061156f565b60405180910390a250565b61062d610b70565b6106376000610bf7565b565b60055481565b60008060009054906101000a900473ffffffffffffffffffffffffffffffffffffffff16905090565b600660009054906101000a900460ff166106b7576040517f08c379a00000000000000000000000000000000000000000000000000000000081526004016106ae906117c0565b60405180910390fd5b600081116106fa576040517f08c379a00000000000000000000000000000000000000000000000000000000081526004016106f19061197d565b60405180910390fd5b600160009054906101000a900473ffffffffffffffffffffffffffffffffffffffff1673ffffffffffffffffffffffffffffffffffffffff166323b872dd3330846040518463ffffffff1660e01b81526004016107599392919061199d565b6020604051808303816000875af1158015610778573d6000803e3d6000fd5b505050506040513d601f19601f8201168201806040525081019061079c9190611904565b506000600760003373ffffffffffffffffffffffffffffffffffffffff1673ffffffffffffffffffffffffffffffffffffffff1681526020019081526020016000205403610848576008339080600181540180825580915050600190039060005260206000200160009091909190916101000a81548173ffffffffffffffffffffffffffffffffffffffff021916908373ffffffffffffffffffffffffffffffffffffffff1602179055505b80600760003373ffffffffffffffffffffffffffffffffffffffff1673ffffffffffffffffffffffffffffffffffffffff168152602001908152602001600020600082825461089791906119d4565b92505081905550600260009054906101000a900473ffffffffffffffffffffffffffffffffffffffff1673ffffffffffffffffffffffffffffffffffffffff166340c10f1933836040518363ffffffff1660e01b81526004016108fb9291906118af565b600060405180830381600087803b15801561091557600080fd5b505af1158015610929573d6000803e3d6000fd5b505050503373ffffffffffffffffffffffffffffffffffffffff167f2da466a7b24304f47e87fa2e1e5a81b9831ce54fec19055ce277ca2f39ba42c482604051610973919061156f565b60405180910390a250565b600360009054906101000a900473ffffffffffffffffffffffffffffffffffffffff1681565b600460009054906101000a900473ffffffffffffffffffffffffffffffffffffffff1681565b600260009054906101000a900473ffffffffffffffffffffffffffffffffffffffff1681565b60088181548110610a0057600080fd5b906000526020600020016000915054906101000a900473ffffffffffffffffffffffffffffffffffffffff1681565b610a37610b70565b600073ffffffffffffffffffffffffffffffffffffffff168173ffffffffffffffffffffffffffffffffffffffff1603610aa95760006040517f1e4fbdf7000000000000000000000000000000000000000000000000000000008152600401610aa091906115f2565b60405180910390fd5b610ab281610bf7565b50565b610abd610b70565b600660009054906101000a900460ff16610b0c576040517f08c379a0000000000000000000000000000000000000000000000000000000008152600401610b03906117c0565b60405180910390fd5b6000600660006101000a81548160ff021916908315150217905550610b2f610cbb565b7f46dd3616ea8c0111d9307947bbc66717335d89719ad1d080c55cfca4b9e6e12e60405160405180910390a1565b600660009054906101000a900460ff1681565b610b78610fce565b73ffffffffffffffffffffffffffffffffffffffff16610b9661063f565b73ffffffffffffffffffffffffffffffffffffffff1614610bf557610bb9610fce565b6040517f118cdaa7000000000000000000000000000000000000000000000000000000008152600401610bec91906115f2565b60405180910390fd5b565b60008060009054906101000a900473ffffffffffffffffffffffffffffffffffffffff169050816000806101000a81548173ffffffffffffffffffffffffffffffffffffffff021916908373ffffffffffffffffffffffffffffffffffffffff1602179055508173ffffffffffffffffffffffffffffffffffffffff168173ffffffffffffffffffffffffffffffffffffffff167f8be0079c531659141344cd1fd0a4f28419497f9722a3daafe3b4186f6b6457e060405160405180910390a35050565b6000600360009054906101000a900473ffffffffffffffffffffffffffffffffffffffff1673ffffffffffffffffffffffffffffffffffffffff166339aa77ea6040518163ffffffff1660e01b81526004016020604051808303816000875af1158015610d2c573d6000803e3d6000fd5b505050506040513d601f19601f82011682018060405250810190610d509190611a1d565b90506000600260009054906101000a900473ffffffffffffffffffffffffffffffffffffffff1673ffffffffffffffffffffffffffffffffffffffff166318160ddd6040518163ffffffff1660e01b8152600401602060405180830381865afa158015610dc1573d6000803e3d6000fd5b505050506040513d601f19601f82011682018060405250810190610de59190611a1d565b905060008111610e2a576040517f08c379a0000000000000000000000000000000000000000000000000000000008152600401610e2190611a96565b60405180910390fd5b6000600460009054906101000a900473ffffffffffffffffffffffffffffffffffffffff1673ffffffffffffffffffffffffffffffffffffffff1663d7ae66bf836040518263ffffffff1660e01b8152600401610e87919061156f565b602060405180830381865afa158015610ea4573d6000803e3d6000fd5b505050506040513d601f19601f82011682018060405250810190610ec89190611acb565b9050600160009054906101000a900473ffffffffffffffffffffffffffffffffffffffff1673ffffffffffffffffffffffffffffffffffffffff1663a9059cbb82856040518363ffffffff1660e01b8152600401610f279291906118af565b6020604051808303816000875af1158015610f46573d6000803e3d6000fd5b505050506040513d601f19601f82011682018060405250810190610f6a9190611904565b508073ffffffffffffffffffffffffffffffffffffffff167f9d315883dbfe38532083c1e42c0d10fbf89ad1cabaa0c269f78b3beb892c101d84604051610fb1919061156f565b60405180910390a2610fc1610fd6565b610fc9611267565b505050565b600033905090565b6000600260009054906101000a900473ffffffffffffffffffffffffffffffffffffffff1673ffffffffffffffffffffffffffffffffffffffff16636b4ed21b6040518163ffffffff1660e01b8152600401602060405180830381865afa158015611045573d6000803e3d6000fd5b505050506040513d601f19601f820116820180604052508101906110699190611a1d565b90505b6000811115611264576000600260009054906101000a900473ffffffffffffffffffffffffffffffffffffffff1673ffffffffffffffffffffffffffffffffffffffff1663197bc33660006040518263ffffffff1660e01b81526004016110d39190611b33565b602060405180830381865afa1580156110f0573d6000803e3d6000fd5b505050506040513d601f19601f820116820180604052508101906111149190611acb565b90506000600260009054906101000a900473ffffffffffffffffffffffffffffffffffffffff1673ffffffffffffffffffffffffffffffffffffffff166370a08231836040518263ffffffff1660e01b815260040161117391906115f2565b602060405180830381865afa158015611190573d6000803e3d6000fd5b505050506040513d601f19601f820116820180604052508101906111b49190611a1d565b9050600081111561124f57600260009054906101000a900473ffffffffffffffffffffffffffffffffffffffff1673ffffffffffffffffffffffffffffffffffffffff16639dc29fac83836040518363ffffffff1660e01b815260040161121c9291906118af565b600060405180830381600087803b15801561123657600080fd5b505af115801561124a573d6000803e3d6000fd5b505050505b828061125a90611b4e565b935050505061106c565b50565b60005b6008805490508110156113fd5760006008828154811061128d5761128c611b77565b5b9060005260206000200160009054906101000a900473ffffffffffffffffffffffffffffffffffffffff1690506000600760008373ffffffffffffffffffffffffffffffffffffffff1673ffffffffffffffffffffffffffffffffffffffff16815260200190815260200160002054905060008111156113ee57600160009054906101000a900473ffffffffffffffffffffffffffffffffffffffff1673ffffffffffffffffffffffffffffffffffffffff1663a9059cbb83836040518363ffffffff1660e01b81526004016113649291906118af565b6020604051808303816000875af1158015611383573d6000803e3d6000fd5b505050506040513d601f19601f820116820180604052508101906113a79190611904565b506000600760008473ffffffffffffffffffffffffffffffffffffffff1673ffffffffffffffffffffffffffffffffffffffff168152602001908152602001600020819055505b5050808060010191505061126a565b506008600061140c919061140e565b565b508054600082559060005260206000209081019061142c919061142f565b50565b5b80821115611448576000816000905550600101611430565b5090565b600073ffffffffffffffffffffffffffffffffffffffff82169050919050565b6000819050919050565b600061149161148c6114878461144c565b61146c565b61144c565b9050919050565b60006114a382611476565b9050919050565b60006114b582611498565b9050919050565b6114c5816114aa565b82525050565b60006020820190506114e060008301846114bc565b92915050565b600080fd5b60006114f68261144c565b9050919050565b611506816114eb565b811461151157600080fd5b50565b600081359050611523816114fd565b92915050565b60006020828403121561153f5761153e6114e6565b5b600061154d84828501611514565b91505092915050565b6000819050919050565b61156981611556565b82525050565b60006020820190506115846000830184611560565b92915050565b61159381611556565b811461159e57600080fd5b50565b6000813590506115b08161158a565b92915050565b6000602082840312156115cc576115cb6114e6565b5b60006115da848285016115a1565b91505092915050565b6115ec816114eb565b82525050565b600060208201905061160760008301846115e3565b92915050565b600061161882611498565b9050919050565b6116288161160d565b82525050565b6000602082019050611643600083018461161f565b92915050565b600061165482611498565b9050919050565b61166481611649565b82525050565b600060208201905061167f600083018461165b565b92915050565b600061169082611498565b9050919050565b6116a081611685565b82525050565b60006020820190506116bb6000830184611697565b92915050565b60008115159050919050565b6116d6816116c1565b82525050565b60006020820190506116f160008301846116cd565b92915050565b600082825260208201905092915050565b7f4472617720697320616c72656164792061637469766500000000000000000000600082015250565b600061173e6016836116f7565b915061174982611708565b602082019050919050565b6000602082019050818103600083015261176d81611731565b9050919050565b7f44726177206973206e6f74206163746976650000000000000000000000000000600082015250565b60006117aa6012836116f7565b91506117b582611774565b602082019050919050565b600060208201905081810360008301526117d98161179d565b9050919050565b7f496e73756666696369656e742062616c616e6365000000000000000000000000600082015250565b60006118166014836116f7565b9150611821826117e0565b602082019050919050565b6000602082019050818103600083015261184581611809565b9050919050565b7f4e487b7100000000000000000000000000000000000000000000000000000000600052601160045260246000fd5b600061188682611556565b915061189183611556565b92508282039050818111156118a9576118a861184c565b5b92915050565b60006040820190506118c460008301856115e3565b6118d16020830184611560565b9392505050565b6118e1816116c1565b81146118ec57600080fd5b50565b6000815190506118fe816118d8565b92915050565b60006020828403121561191a576119196114e6565b5b6000611928848285016118ef565b91505092915050565b7f416d6f756e74206d7573742062652067726561746572207468616e207a65726f600082015250565b60006119676020836116f7565b915061197282611931565b602082019050919050565b600060208201905081810360008301526119968161195a565b9050919050565b60006060820190506119b260008301866115e3565b6119bf60208301856115e3565b6119cc6040830184611560565b949350505050565b60006119df82611556565b91506119ea83611556565b9250828201905080821115611a0257611a0161184c565b5b92915050565b600081519050611a178161158a565b92915050565b600060208284031215611a3357611a326114e6565b5b6000611a4184828501611a08565b91505092915050565b7f4e6f204269747320617661696c61626c6520666f722064726177696e67000000600082015250565b6000611a80601d836116f7565b9150611a8b82611a4a565b602082019050919050565b60006020820190508181036000830152611aaf81611a73565b9050919050565b600081519050611ac5816114fd565b92915050565b600060208284031215611ae157611ae06114e6565b5b6000611aef84828501611ab6565b91505092915050565b6000819050919050565b6000611b1d611b18611b1384611af8565b61146c565b611556565b9050919050565b611b2d81611b02565b82525050565b6000602082019050611b486000830184611b24565b92915050565b6000611b5982611556565b915060008203611b6c57611b6b61184c565b5b600182039050919050565b7f4e487b7100000000000000000000000000000000000000000000000000000000600052603260045260246000fdfea264697066735822122075d541e44f019b58eb8ccf9b69e36d97bb5b23cb0a5cf5d1e3a34339f58324d864736f6c634300081b0033",
  "devdoc": {
    "errors": {
      "OwnableInvalidOwner(address)": [
        {
          "details": "The owner is not a valid owner account. (eg. `address(0)`)"
        }
      ],
      "OwnableUnauthorizedAccount(address)": [
        {
          "details": "The caller account is not authorized to perform an operation."
        }
      ]
    },
    "kind": "dev",
    "methods": {
      "owner()": {
        "details": "Returns the address of the current owner."
      },
      "renounceOwnership()": {
        "details": "Leaves the contract without owner. It will not be possible to call `onlyOwner` functions. Can only be called by the current owner. NOTE: Renouncing ownership will leave the contract without an owner, thereby disabling any functionality that is only available to the owner."
      },
      "transferOwnership(address)": {
        "details": "Transfers ownership of the contract to a new account (`newOwner`). Can only be called by the current owner."
      }
    },
    "version": 1
  },
  "userdoc": {
    "kind": "user",
    "methods": {},
    "version": 1
  },
  "storageLayout": {
    "storage": [
      {
        "astId": 8,
        "contract": "contracts/PrizePool.sol:PrizePool",
        "label": "_owner",
        "offset": 0,
        "slot": "0",
        "type": "t_address"
      },
      {
        "astId": 1204,
        "contract": "contracts/PrizePool.sol:PrizePool",
        "label": "usdcToken",
        "offset": 0,
        "slot": "1",
        "type": "t_contract(IERC20)877"
      },
      {
        "astId": 1207,
        "contract": "contracts/PrizePool.sol:PrizePool",
        "label": "bitToken",
        "offset": 0,
        "slot": "2",
        "type": "t_contract(Bit)1187"
      },
      {
        "astId": 1210,
        "contract": "contracts/PrizePool.sol:PrizePool",
        "label": "yieldContract",
        "offset": 0,
        "slot": "3",
        "type": "t_contract(IYieldContract)1199"
      },
      {
        "astId": 1213,
        "contract": "contracts/PrizePool.sol:PrizePool",
        "label": "rng",
        "offset": 0,
        "slot": "4",
        "type": "t_contract(RandomNumberGenerator)1724"
      },
      {
        "astId": 1215,
        "contract": "contracts/PrizePool.sol:PrizePool",
        "label": "totalDeposits",
        "offset": 0,
        "slot": "5",
        "type": "t_uint256"
      },
      {
        "astId": 1217,
        "contract": "contracts/PrizePool.sol:PrizePool",
        "label": "isDrawActive",
        "offset": 0,
        "slot": "6",
        "type": "t_bool"
      },
      {
        "astId": 1221,
        "contract": "contracts/PrizePool.sol:PrizePool",
        "label": "balances",
        "offset": 0,
        "slot": "7",
        "type": "t_mapping(t_address,t_uint256)"
      },
      {
        "astId": 1224,
        "contract": "contracts/PrizePool.sol:PrizePool",
        "label": "depositors",
        "offset": 0,
        "slot": "8",
        "type": "t_array(t_address)dyn_storage"
      }
    ],
    "types": {
      "t_address": {
        "encoding": "inplace",
        "label": "address",
        "numberOfBytes": "20"
      },
      "t_array(t_address)dyn_storage": {
        "base": "t_address",
        "encoding": "dynamic_array",
        "label": "address[]",
        "numberOfBytes": "32"
      },
      "t_bool": {
        "encoding": "inplace",
        "label": "bool",
        "numberOfBytes": "1"
      },
      "t_contract(Bit)1187": {
        "encoding": "inplace",
        "label": "contract Bit",
        "numberOfBytes": "20"
      },
      "t_contract(IERC20)877": {
        "encoding": "inplace",
        "label": "contract IERC20",
        "numberOfBytes": "20"
      },
      "t_contract(IYieldContract)1199": {
        "encoding": "inplace",
        "label": "contract IYieldContract",
        "numberOfBytes": "20"
      },
      "t_contract(RandomNumberGenerator)1724": {
        "encoding": "inplace",
        "label": "contract RandomNumberGenerator",
        "numberOfBytes": "20"
      },
      "t_mapping(t_address,t_uint256)": {
        "encoding": "mapping",
        "key": "t_address",
        "label": "mapping(address => uint256)",
        "numberOfBytes": "32",
        "value": "t_uint256"
      },
      "t_uint256": {
        "encoding": "inplace",
        "label": "uint256",
        "numberOfBytes": "32"
      }
    }
  }
}