{
  "address": "0x9C645A4F7d79C7e005a80d19BcE76459bf963C0F",
  "abi": [
    {
      "inputs": [
        {
          "internalType": "address",
          "name": "_usdcToken",
          "type": "address"
        },
        {
          "internalType": "address",
          "name": "_bitToken",
          "type": "address"
        },
        {
          "internalType": "address",
          "name": "_yieldContract",
          "type": "address"
        },
        {
          "internalType": "address",
          "name": "_rng",
          "type": "address"
        }
      ],
      "stateMutability": "nonpayable",
      "type": "constructor"
    },
    {
      "inputs": [
        {
          "internalType": "address",
          "name": "owner",
          "type": "address"
        }
      ],
      "name": "OwnableInvalidOwner",
      "type": "error"
    },
    {
      "inputs": [
        {
          "internalType": "address",
          "name": "account",
          "type": "address"
        }
      ],
      "name": "OwnableUnauthorizedAccount",
      "type": "error"
    },
    {
      "anonymous": false,
      "inputs": [
        {
          "indexed": true,
          "internalType": "address",
          "name": "user",
          "type": "address"
        },
        {
          "indexed": false,
          "internalType": "uint256",
          "name": "amount",
          "type": "uint256"
        }
      ],
      "name": "Deposited",
      "type": "event"
    },
    {
      "anonymous": false,
      "inputs": [],
      "name": "DrawStarted",
      "type": "event"
    },
    {
      "anonymous": false,
      "inputs": [],
      "name": "DrawStopped",
      "type": "event"
    },
    {
      "anonymous": false,
      "inputs": [
        {
          "indexed": true,
          "internalType": "address",
          "name": "previousOwner",
          "type": "address"
        },
        {
          "indexed": true,
          "internalType": "address",
          "name": "newOwner",
          "type": "address"
        }
      ],
      "name": "OwnershipTransferred",
      "type": "event"
    },
    {
      "anonymous": false,
      "inputs": [
        {
          "indexed": true,
          "internalType": "address",
          "name": "user",
          "type": "address"
        },
        {
          "indexed": false,
          "internalType": "uint256",
          "name": "amount",
          "type": "uint256"
        }
      ],
      "name": "Withdrawn",
      "type": "event"
    },
    {
      "anonymous": false,
      "inputs": [
        {
          "indexed": true,
          "internalType": "address",
          "name": "winner",
          "type": "address"
        },
        {
          "indexed": false,
          "internalType": "uint256",
          "name": "amount",
          "type": "uint256"
        }
      ],
      "name": "YieldDistributed",
      "type": "event"
    },
    {
      "inputs": [
        {
          "internalType": "address",
          "name": "",
          "type": "address"
        }
      ],
      "name": "balances",
      "outputs": [
        {
          "internalType": "uint256",
          "name": "",
          "type": "uint256"
        }
      ],
      "stateMutability": "view",
      "type": "function"
    },
    {
      "inputs": [],
      "name": "bitToken",
      "outputs": [
        {
          "internalType": "contract Bit",
          "name": "",
          "type": "address"
        }
      ],
      "stateMutability": "view",
      "type": "function"
    },
    {
      "inputs": [
        {
          "internalType": "uint256",
          "name": "amount",
          "type": "uint256"
        }
      ],
      "name": "deposit",
      "outputs": [],
      "stateMutability": "nonpayable",
      "type": "function"
    },
    {
      "inputs": [
        {
          "internalType": "uint256",
          "name": "",
          "type": "uint256"
        }
      ],
      "name": "depositors",
      "outputs": [
        {
          "internalType": "address",
          "name": "",
          "type": "address"
        }
      ],
      "stateMutability": "view",
      "type": "function"
    },
    {
      "inputs": [],
      "name": "getPotentialReward",
      "outputs": [
        {
          "internalType": "uint256",
          "name": "",
          "type": "uint256"
        }
      ],
      "stateMutability": "view",
      "type": "function"
    },
    {
      "inputs": [],
      "name": "getTotalDeposits",
      "outputs": [
        {
          "internalType": "uint256",
          "name": "",
          "type": "uint256"
        }
      ],
      "stateMutability": "view",
      "type": "function"
    },
    {
      "inputs": [],
      "name": "getTotalParticipants",
      "outputs": [
        {
          "internalType": "uint256",
          "name": "",
          "type": "uint256"
        }
      ],
      "stateMutability": "view",
      "type": "function"
    },
    {
      "inputs": [
        {
          "internalType": "address",
          "name": "holder",
          "type": "address"
        }
      ],
      "name": "getUserDeposit",
      "outputs": [
        {
          "internalType": "uint256",
          "name": "",
          "type": "uint256"
        }
      ],
      "stateMutability": "view",
      "type": "function"
    },
    {
      "inputs": [
        {
          "internalType": "address",
          "name": "holder",
          "type": "address"
        }
      ],
      "name": "getWinPercentage",
      "outputs": [
        {
          "internalType": "uint256",
          "name": "",
          "type": "uint256"
        }
      ],
      "stateMutability": "view",
      "type": "function"
    },
    {
      "inputs": [],
      "name": "isDrawActive",
      "outputs": [
        {
          "internalType": "bool",
          "name": "",
          "type": "bool"
        }
      ],
      "stateMutability": "view",
      "type": "function"
    },
    {
      "inputs": [],
      "name": "owner",
      "outputs": [
        {
          "internalType": "address",
          "name": "",
          "type": "address"
        }
      ],
      "stateMutability": "view",
      "type": "function"
    },
    {
      "inputs": [],
      "name": "renounceOwnership",
      "outputs": [],
      "stateMutability": "nonpayable",
      "type": "function"
    },
    {
      "inputs": [],
      "name": "rng",
      "outputs": [
        {
          "internalType": "contract RandomNumberGenerator",
          "name": "",
          "type": "address"
        }
      ],
      "stateMutability": "view",
      "type": "function"
    },
    {
      "inputs": [],
      "name": "startDraw",
      "outputs": [],
      "stateMutability": "nonpayable",
      "type": "function"
    },
    {
      "inputs": [],
      "name": "stopDraw",
      "outputs": [],
      "stateMutability": "nonpayable",
      "type": "function"
    },
    {
      "inputs": [
        {
          "internalType": "address",
          "name": "newOwner",
          "type": "address"
        }
      ],
      "name": "transferOwnership",
      "outputs": [],
      "stateMutability": "nonpayable",
      "type": "function"
    },
    {
      "inputs": [],
      "name": "usdcToken",
      "outputs": [
        {
          "internalType": "contract IERC20",
          "name": "",
          "type": "address"
        }
      ],
      "stateMutability": "view",
      "type": "function"
    },
    {
      "inputs": [
        {
          "internalType": "uint256",
          "name": "amount",
          "type": "uint256"
        }
      ],
      "name": "withdraw",
      "outputs": [],
      "stateMutability": "nonpayable",
      "type": "function"
    },
    {
      "inputs": [],
      "name": "yieldContract",
      "outputs": [
        {
          "internalType": "contract IYieldContract",
          "name": "",
          "type": "address"
        }
      ],
      "stateMutability": "view",
      "type": "function"
    }
  ],
  "transactionHash": "0x7dfa938c6a77c88e19780e9d0fdf3fbd6cd884795c07c5bf09c0b4a408d2cb64",
  "args": [
    "0x5B2eb1f24B900432D90207cbFa6187C48651a0F8",
    "0x9BFCA8A69Fae0fc9cB1B6c6B37516991F3DF05eE",
    "0x0953aB0D55Ba27Cd490238575868Bdf26aDa9E6b",
    "0x2650261094fe20bf0ef8b7E848ccF3af6775d263"
  ],
  "numDeployments": 1,
  "solcInputHash": "d7686ccd7c0a2e5a1f4b3f38d70b1d11",
  "bytecode": "0x608060405234801561001057600080fd5b5060405161242d38038061242d83398181016040528101906100329190610304565b33600073ffffffffffffffffffffffffffffffffffffffff168173ffffffffffffffffffffffffffffffffffffffff16036100a55760006040517f1e4fbdf700000000000000000000000000000000000000000000000000000000815260040161009c919061037a565b60405180910390fd5b6100b4816101dd60201b60201c565b5083600160006101000a81548173ffffffffffffffffffffffffffffffffffffffff021916908373ffffffffffffffffffffffffffffffffffffffff16021790555082600260006101000a81548173ffffffffffffffffffffffffffffffffffffffff021916908373ffffffffffffffffffffffffffffffffffffffff16021790555081600360006101000a81548173ffffffffffffffffffffffffffffffffffffffff021916908373ffffffffffffffffffffffffffffffffffffffff16021790555080600460006101000a81548173ffffffffffffffffffffffffffffffffffffffff021916908373ffffffffffffffffffffffffffffffffffffffff1602179055506000600460146101000a81548160ff02191690831515021790555050505050610395565b60008060009054906101000a900473ffffffffffffffffffffffffffffffffffffffff169050816000806101000a81548173ffffffffffffffffffffffffffffffffffffffff021916908373ffffffffffffffffffffffffffffffffffffffff1602179055508173ffffffffffffffffffffffffffffffffffffffff168173ffffffffffffffffffffffffffffffffffffffff167f8be0079c531659141344cd1fd0a4f28419497f9722a3daafe3b4186f6b6457e060405160405180910390a35050565b600080fd5b600073ffffffffffffffffffffffffffffffffffffffff82169050919050565b60006102d1826102a6565b9050919050565b6102e1816102c6565b81146102ec57600080fd5b50565b6000815190506102fe816102d8565b92915050565b6000806000806080858703121561031e5761031d6102a1565b5b600061032c878288016102ef565b945050602061033d878288016102ef565b935050604061034e878288016102ef565b925050606061035f878288016102ef565b91505092959194509250565b610374816102c6565b82525050565b600060208201905061038f600083018461036b565b92915050565b612089806103a46000396000f3fe608060405234801561001057600080fd5b50600436106101215760003560e01c8063a90cc445116100ad578063d84e9f9211610071578063d84e9f92146102d4578063e4b2fb79146102f2578063f2fde38b14610322578063fa1e8f1b1461033e578063fc95eb031461034857610121565b8063a90cc4451461022e578063b6b55f251461024c578063c084b10b14610268578063c3206e1314610298578063d605787b146102b657610121565b806327e235e3116100f457806327e235e3146101b05780632ae168a6146101e05780632e1a7d4d146101ea578063715018a6146102065780638da5cb5b1461021057610121565b806309b3ebdd1461012657806311eac85514610156578063168a48221461017457806323083a9114610192575b600080fd5b610140600480360381019061013b91906118ba565b610366565b60405161014d9190611900565b60405180910390f35b61015e6104dd565b60405161016b919061197a565b60405180910390f35b61017c610503565b6040516101899190611900565b60405180910390f35b61019a6105ba565b6040516101a79190611900565b60405180910390f35b6101ca60048036038101906101c591906118ba565b61067f565b6040516101d79190611900565b60405180910390f35b6101e8610697565b005b61020460048036038101906101ff91906119c1565b610738565b005b61020e6109e0565b005b6102186109f4565b60405161022591906119fd565b60405180910390f35b610236610a1d565b6040516102439190611900565b60405180910390f35b610266600480360381019061026191906119c1565b610a2a565b005b610282600480360381019061027d91906118ba565b610d40565b60405161028f9190611900565b60405180910390f35b6102a0610d89565b6040516102ad9190611a39565b60405180910390f35b6102be610daf565b6040516102cb9190611a75565b60405180910390f35b6102dc610dd5565b6040516102e99190611ab1565b60405180910390f35b61030c600480360381019061030791906119c1565b610dfb565b60405161031991906119fd565b60405180910390f35b61033c600480360381019061033791906118ba565b610e3a565b005b610346610ec0565b005b610350610f68565b60405161035d9190611ae7565b60405180910390f35b600080600260009054906101000a900473ffffffffffffffffffffffffffffffffffffffff1673ffffffffffffffffffffffffffffffffffffffff166318160ddd6040518163ffffffff1660e01b8152600401602060405180830381865afa1580156103d6573d6000803e3d6000fd5b505050506040513d601f19601f820116820180604052508101906103fa9190611b17565b90506000600260009054906101000a900473ffffffffffffffffffffffffffffffffffffffff1673ffffffffffffffffffffffffffffffffffffffff166370a08231856040518263ffffffff1660e01b815260040161045991906119fd565b602060405180830381865afa158015610476573d6000803e3d6000fd5b505050506040513d601f19601f8201168201806040525081019061049a9190611b17565b905060008214806104ab5750600081145b156104bb576000925050506104d8565b816064826104c99190611b73565b6104d39190611be4565b925050505b919050565b600160009054906101000a900473ffffffffffffffffffffffffffffffffffffffff1681565b6000806000905060005b6006805490508110156105b257600560006006838154811061053257610531611c15565b5b9060005260206000200160009054906101000a900473ffffffffffffffffffffffffffffffffffffffff1673ffffffffffffffffffffffffffffffffffffffff1673ffffffffffffffffffffffffffffffffffffffff16815260200190815260200160002054826105a39190611c44565b9150808060010191505061050d565b508091505090565b6000600160009054906101000a900473ffffffffffffffffffffffffffffffffffffffff1673ffffffffffffffffffffffffffffffffffffffff166370a08231600360009054906101000a900473ffffffffffffffffffffffffffffffffffffffff166040518263ffffffff1660e01b815260040161063991906119fd565b602060405180830381865afa158015610656573d6000803e3d6000fd5b505050506040513d601f19601f8201168201806040525081019061067a9190611b17565b905090565b60056020528060005260406000206000915090505481565b61069f610f7b565b600460149054906101000a900460ff16156106ef576040517f08c379a00000000000000000000000000000000000000000000000000000000081526004016106e690611cd5565b60405180910390fd5b6001600460146101000a81548160ff0219169083151502179055507f0fd3215fb38f4c3605b0b32862733cc4671a5f0271e027bdb193b8e6f813eda060405160405180910390a1565b600460149054906101000a900460ff16610787576040517f08c379a000000000000000000000000000000000000000000000000000000000815260040161077e90611d41565b60405180910390fd5b80600560003373ffffffffffffffffffffffffffffffffffffffff1673ffffffffffffffffffffffffffffffffffffffff168152602001908152602001600020541015610809576040517f08c379a000000000000000000000000000000000000000000000000000000000815260040161080090611dad565b60405180910390fd5b80600560003373ffffffffffffffffffffffffffffffffffffffff1673ffffffffffffffffffffffffffffffffffffffff16815260200190815260200160002060008282546108589190611dcd565b92505081905550600260009054906101000a900473ffffffffffffffffffffffffffffffffffffffff1673ffffffffffffffffffffffffffffffffffffffff16639dc29fac33836040518363ffffffff1660e01b81526004016108bc929190611e01565b600060405180830381600087803b1580156108d657600080fd5b505af11580156108ea573d6000803e3d6000fd5b50505050600160009054906101000a900473ffffffffffffffffffffffffffffffffffffffff1673ffffffffffffffffffffffffffffffffffffffff1663a9059cbb33836040518363ffffffff1660e01b815260040161094b929190611e01565b6020604051808303816000875af115801561096a573d6000803e3d6000fd5b505050506040513d601f19601f8201168201806040525081019061098e9190611e56565b503373ffffffffffffffffffffffffffffffffffffffff167f7084f5476618d8e60b11ef0d7d3f06914655adb8793e28ff7f018d4c76d505d5826040516109d59190611900565b60405180910390a250565b6109e8610f7b565b6109f26000611002565b565b60008060009054906101000a900473ffffffffffffffffffffffffffffffffffffffff16905090565b6000600680549050905090565b600460149054906101000a900460ff16610a79576040517f08c379a0000000000000000000000000000000000000000000000000000000008152600401610a7090611d41565b60405180910390fd5b60008111610abc576040517f08c379a0000000000000000000000000000000000000000000000000000000008152600401610ab390611ecf565b60405180910390fd5b600160009054906101000a900473ffffffffffffffffffffffffffffffffffffffff1673ffffffffffffffffffffffffffffffffffffffff166323b872dd3330846040518463ffffffff1660e01b8152600401610b1b93929190611eef565b6020604051808303816000875af1158015610b3a573d6000803e3d6000fd5b505050506040513d601f19601f82011682018060405250810190610b5e9190611e56565b506000600560003373ffffffffffffffffffffffffffffffffffffffff1673ffffffffffffffffffffffffffffffffffffffff1681526020019081526020016000205403610c0a576006339080600181540180825580915050600190039060005260206000200160009091909190916101000a81548173ffffffffffffffffffffffffffffffffffffffff021916908373ffffffffffffffffffffffffffffffffffffffff1602179055505b80600560003373ffffffffffffffffffffffffffffffffffffffff1673ffffffffffffffffffffffffffffffffffffffff1681526020019081526020016000206000828254610c599190611c44565b92505081905550600260009054906101000a900473ffffffffffffffffffffffffffffffffffffffff1673ffffffffffffffffffffffffffffffffffffffff166340c10f1933836040518363ffffffff1660e01b8152600401610cbd929190611e01565b600060405180830381600087803b158015610cd757600080fd5b505af1158015610ceb573d6000803e3d6000fd5b505050503373ffffffffffffffffffffffffffffffffffffffff167f2da466a7b24304f47e87fa2e1e5a81b9831ce54fec19055ce277ca2f39ba42c482604051610d359190611900565b60405180910390a250565b6000600560008373ffffffffffffffffffffffffffffffffffffffff1673ffffffffffffffffffffffffffffffffffffffff168152602001908152602001600020549050919050565b600360009054906101000a900473ffffffffffffffffffffffffffffffffffffffff1681565b600460009054906101000a900473ffffffffffffffffffffffffffffffffffffffff1681565b600260009054906101000a900473ffffffffffffffffffffffffffffffffffffffff1681565b60068181548110610e0b57600080fd5b906000526020600020016000915054906101000a900473ffffffffffffffffffffffffffffffffffffffff1681565b610e42610f7b565b600073ffffffffffffffffffffffffffffffffffffffff168173ffffffffffffffffffffffffffffffffffffffff1603610eb45760006040517f1e4fbdf7000000000000000000000000000000000000000000000000000000008152600401610eab91906119fd565b60405180910390fd5b610ebd81611002565b50565b610ec8610f7b565b600460149054906101000a900460ff16610f17576040517f08c379a0000000000000000000000000000000000000000000000000000000008152600401610f0e90611d41565b60405180910390fd5b6000600460146101000a81548160ff021916908315150217905550610f3a6110c6565b7f46dd3616ea8c0111d9307947bbc66717335d89719ad1d080c55cfca4b9e6e12e60405160405180910390a1565b600460149054906101000a900460ff1681565b610f836113d9565b73ffffffffffffffffffffffffffffffffffffffff16610fa16109f4565b73ffffffffffffffffffffffffffffffffffffffff161461100057610fc46113d9565b6040517f118cdaa7000000000000000000000000000000000000000000000000000000008152600401610ff791906119fd565b60405180910390fd5b565b60008060009054906101000a900473ffffffffffffffffffffffffffffffffffffffff169050816000806101000a81548173ffffffffffffffffffffffffffffffffffffffff021916908373ffffffffffffffffffffffffffffffffffffffff1602179055508173ffffffffffffffffffffffffffffffffffffffff168173ffffffffffffffffffffffffffffffffffffffff167f8be0079c531659141344cd1fd0a4f28419497f9722a3daafe3b4186f6b6457e060405160405180910390a35050565b6000600360009054906101000a900473ffffffffffffffffffffffffffffffffffffffff1673ffffffffffffffffffffffffffffffffffffffff166339aa77ea6040518163ffffffff1660e01b81526004016020604051808303816000875af1158015611137573d6000803e3d6000fd5b505050506040513d601f19601f8201168201806040525081019061115b9190611b17565b90506000600260009054906101000a900473ffffffffffffffffffffffffffffffffffffffff1673ffffffffffffffffffffffffffffffffffffffff166318160ddd6040518163ffffffff1660e01b8152600401602060405180830381865afa1580156111cc573d6000803e3d6000fd5b505050506040513d601f19601f820116820180604052508101906111f09190611b17565b905060008111611235576040517f08c379a000000000000000000000000000000000000000000000000000000000815260040161122c90611f72565b60405180910390fd5b6000600460009054906101000a900473ffffffffffffffffffffffffffffffffffffffff1673ffffffffffffffffffffffffffffffffffffffff1663d7ae66bf836040518263ffffffff1660e01b81526004016112929190611900565b602060405180830381865afa1580156112af573d6000803e3d6000fd5b505050506040513d601f19601f820116820180604052508101906112d39190611fa7565b9050600160009054906101000a900473ffffffffffffffffffffffffffffffffffffffff1673ffffffffffffffffffffffffffffffffffffffff1663a9059cbb82856040518363ffffffff1660e01b8152600401611332929190611e01565b6020604051808303816000875af1158015611351573d6000803e3d6000fd5b505050506040513d601f19601f820116820180604052508101906113759190611e56565b508073ffffffffffffffffffffffffffffffffffffffff167f9d315883dbfe38532083c1e42c0d10fbf89ad1cabaa0c269f78b3beb892c101d846040516113bc9190611900565b60405180910390a26113cc6113e1565b6113d4611672565b505050565b600033905090565b6000600260009054906101000a900473ffffffffffffffffffffffffffffffffffffffff1673ffffffffffffffffffffffffffffffffffffffff16636b4ed21b6040518163ffffffff1660e01b8152600401602060405180830381865afa158015611450573d6000803e3d6000fd5b505050506040513d601f19601f820116820180604052508101906114749190611b17565b90505b600081111561166f576000600260009054906101000a900473ffffffffffffffffffffffffffffffffffffffff1673ffffffffffffffffffffffffffffffffffffffff1663197bc33660006040518263ffffffff1660e01b81526004016114de919061200f565b602060405180830381865afa1580156114fb573d6000803e3d6000fd5b505050506040513d601f19601f8201168201806040525081019061151f9190611fa7565b90506000600260009054906101000a900473ffffffffffffffffffffffffffffffffffffffff1673ffffffffffffffffffffffffffffffffffffffff166370a08231836040518263ffffffff1660e01b815260040161157e91906119fd565b602060405180830381865afa15801561159b573d6000803e3d6000fd5b505050506040513d601f19601f820116820180604052508101906115bf9190611b17565b9050600081111561165a57600260009054906101000a900473ffffffffffffffffffffffffffffffffffffffff1673ffffffffffffffffffffffffffffffffffffffff16639dc29fac83836040518363ffffffff1660e01b8152600401611627929190611e01565b600060405180830381600087803b15801561164157600080fd5b505af1158015611655573d6000803e3d6000fd5b505050505b82806116659061202a565b9350505050611477565b50565b60005b6006805490508110156118085760006006828154811061169857611697611c15565b5b9060005260206000200160009054906101000a900473ffffffffffffffffffffffffffffffffffffffff1690506000600560008373ffffffffffffffffffffffffffffffffffffffff1673ffffffffffffffffffffffffffffffffffffffff16815260200190815260200160002054905060008111156117f957600160009054906101000a900473ffffffffffffffffffffffffffffffffffffffff1673ffffffffffffffffffffffffffffffffffffffff1663a9059cbb83836040518363ffffffff1660e01b815260040161176f929190611e01565b6020604051808303816000875af115801561178e573d6000803e3d6000fd5b505050506040513d601f19601f820116820180604052508101906117b29190611e56565b506000600560008473ffffffffffffffffffffffffffffffffffffffff1673ffffffffffffffffffffffffffffffffffffffff168152602001908152602001600020819055505b50508080600101915050611675565b50600660006118179190611819565b565b5080546000825590600052602060002090810190611837919061183a565b50565b5b8082111561185357600081600090555060010161183b565b5090565b600080fd5b600073ffffffffffffffffffffffffffffffffffffffff82169050919050565b60006118878261185c565b9050919050565b6118978161187c565b81146118a257600080fd5b50565b6000813590506118b48161188e565b92915050565b6000602082840312156118d0576118cf611857565b5b60006118de848285016118a5565b91505092915050565b6000819050919050565b6118fa816118e7565b82525050565b600060208201905061191560008301846118f1565b92915050565b6000819050919050565b600061194061193b6119368461185c565b61191b565b61185c565b9050919050565b600061195282611925565b9050919050565b600061196482611947565b9050919050565b61197481611959565b82525050565b600060208201905061198f600083018461196b565b92915050565b61199e816118e7565b81146119a957600080fd5b50565b6000813590506119bb81611995565b92915050565b6000602082840312156119d7576119d6611857565b5b60006119e5848285016119ac565b91505092915050565b6119f78161187c565b82525050565b6000602082019050611a1260008301846119ee565b92915050565b6000611a2382611947565b9050919050565b611a3381611a18565b82525050565b6000602082019050611a4e6000830184611a2a565b92915050565b6000611a5f82611947565b9050919050565b611a6f81611a54565b82525050565b6000602082019050611a8a6000830184611a66565b92915050565b6000611a9b82611947565b9050919050565b611aab81611a90565b82525050565b6000602082019050611ac66000830184611aa2565b92915050565b60008115159050919050565b611ae181611acc565b82525050565b6000602082019050611afc6000830184611ad8565b92915050565b600081519050611b1181611995565b92915050565b600060208284031215611b2d57611b2c611857565b5b6000611b3b84828501611b02565b91505092915050565b7f4e487b7100000000000000000000000000000000000000000000000000000000600052601160045260246000fd5b6000611b7e826118e7565b9150611b89836118e7565b9250828202611b97816118e7565b91508282048414831517611bae57611bad611b44565b5b5092915050565b7f4e487b7100000000000000000000000000000000000000000000000000000000600052601260045260246000fd5b6000611bef826118e7565b9150611bfa836118e7565b925082611c0a57611c09611bb5565b5b828204905092915050565b7f4e487b7100000000000000000000000000000000000000000000000000000000600052603260045260246000fd5b6000611c4f826118e7565b9150611c5a836118e7565b9250828201905080821115611c7257611c71611b44565b5b92915050565b600082825260208201905092915050565b7f4472617720697320616c72656164792061637469766500000000000000000000600082015250565b6000611cbf601683611c78565b9150611cca82611c89565b602082019050919050565b60006020820190508181036000830152611cee81611cb2565b9050919050565b7f44726177206973206e6f74206163746976650000000000000000000000000000600082015250565b6000611d2b601283611c78565b9150611d3682611cf5565b602082019050919050565b60006020820190508181036000830152611d5a81611d1e565b9050919050565b7f496e73756666696369656e742062616c616e6365000000000000000000000000600082015250565b6000611d97601483611c78565b9150611da282611d61565b602082019050919050565b60006020820190508181036000830152611dc681611d8a565b9050919050565b6000611dd8826118e7565b9150611de3836118e7565b9250828203905081811115611dfb57611dfa611b44565b5b92915050565b6000604082019050611e1660008301856119ee565b611e2360208301846118f1565b9392505050565b611e3381611acc565b8114611e3e57600080fd5b50565b600081519050611e5081611e2a565b92915050565b600060208284031215611e6c57611e6b611857565b5b6000611e7a84828501611e41565b91505092915050565b7f416d6f756e74206d7573742062652067726561746572207468616e207a65726f600082015250565b6000611eb9602083611c78565b9150611ec482611e83565b602082019050919050565b60006020820190508181036000830152611ee881611eac565b9050919050565b6000606082019050611f0460008301866119ee565b611f1160208301856119ee565b611f1e60408301846118f1565b949350505050565b7f4e6f204269747320617661696c61626c6520666f722064726177696e67000000600082015250565b6000611f5c601d83611c78565b9150611f6782611f26565b602082019050919050565b60006020820190508181036000830152611f8b81611f4f565b9050919050565b600081519050611fa18161188e565b92915050565b600060208284031215611fbd57611fbc611857565b5b6000611fcb84828501611f92565b91505092915050565b6000819050919050565b6000611ff9611ff4611fef84611fd4565b61191b565b6118e7565b9050919050565b61200981611fde565b82525050565b60006020820190506120246000830184612000565b92915050565b6000612035826118e7565b91506000820361204857612047611b44565b5b60018203905091905056fea26469706673582212203211340140579052e04d49b6af8b6bb1b87f485f02361a75111c82d0587e167964736f6c634300081b0033",
  "devdoc": {
    "errors": {
      "OwnableInvalidOwner(address)": [
        {
          "details": "The owner is not a valid owner account. (eg. `address(0)`)"
        }
      ],
      "OwnableUnauthorizedAccount(address)": [
        {
          "details": "The caller account is not authorized to perform an operation."
        }
      ]
    },
    "kind": "dev",
    "methods": {
      "owner()": {
        "details": "Returns the address of the current owner."
      },
      "renounceOwnership()": {
        "details": "Leaves the contract without owner. It will not be possible to call `onlyOwner` functions. Can only be called by the current owner. NOTE: Renouncing ownership will leave the contract without an owner, thereby disabling any functionality that is only available to the owner."
      },
      "transferOwnership(address)": {
        "details": "Transfers ownership of the contract to a new account (`newOwner`). Can only be called by the current owner."
      }
    },
    "version": 1
  },
  "userdoc": {
    "kind": "user",
    "methods": {},
    "version": 1
  },
  "storageLayout": {
    "storage": [
      {
        "astId": 8,
        "contract": "contracts/PrizePool.sol:PrizePool",
        "label": "_owner",
        "offset": 0,
        "slot": "0",
        "type": "t_address"
      },
      {
        "astId": 1204,
        "contract": "contracts/PrizePool.sol:PrizePool",
        "label": "usdcToken",
        "offset": 0,
        "slot": "1",
        "type": "t_contract(IERC20)877"
      },
      {
        "astId": 1207,
        "contract": "contracts/PrizePool.sol:PrizePool",
        "label": "bitToken",
        "offset": 0,
        "slot": "2",
        "type": "t_contract(Bit)1187"
      },
      {
        "astId": 1210,
        "contract": "contracts/PrizePool.sol:PrizePool",
        "label": "yieldContract",
        "offset": 0,
        "slot": "3",
        "type": "t_contract(IYieldContract)1199"
      },
      {
        "astId": 1213,
        "contract": "contracts/PrizePool.sol:PrizePool",
        "label": "rng",
        "offset": 0,
        "slot": "4",
        "type": "t_contract(RandomNumberGenerator)1829"
      },
      {
        "astId": 1215,
        "contract": "contracts/PrizePool.sol:PrizePool",
        "label": "isDrawActive",
        "offset": 20,
        "slot": "4",
        "type": "t_bool"
      },
      {
        "astId": 1219,
        "contract": "contracts/PrizePool.sol:PrizePool",
        "label": "balances",
        "offset": 0,
        "slot": "5",
        "type": "t_mapping(t_address,t_uint256)"
      },
      {
        "astId": 1222,
        "contract": "contracts/PrizePool.sol:PrizePool",
        "label": "depositors",
        "offset": 0,
        "slot": "6",
        "type": "t_array(t_address)dyn_storage"
      }
    ],
    "types": {
      "t_address": {
        "encoding": "inplace",
        "label": "address",
        "numberOfBytes": "20"
      },
      "t_array(t_address)dyn_storage": {
        "base": "t_address",
        "encoding": "dynamic_array",
        "label": "address[]",
        "numberOfBytes": "32"
      },
      "t_bool": {
        "encoding": "inplace",
        "label": "bool",
        "numberOfBytes": "1"
      },
      "t_contract(Bit)1187": {
        "encoding": "inplace",
        "label": "contract Bit",
        "numberOfBytes": "20"
      },
      "t_contract(IERC20)877": {
        "encoding": "inplace",
        "label": "contract IERC20",
        "numberOfBytes": "20"
      },
      "t_contract(IYieldContract)1199": {
        "encoding": "inplace",
        "label": "contract IYieldContract",
        "numberOfBytes": "20"
      },
      "t_contract(RandomNumberGenerator)1829": {
        "encoding": "inplace",
        "label": "contract RandomNumberGenerator",
        "numberOfBytes": "20"
      },
      "t_mapping(t_address,t_uint256)": {
        "encoding": "mapping",
        "key": "t_address",
        "label": "mapping(address => uint256)",
        "numberOfBytes": "32",
        "value": "t_uint256"
      },
      "t_uint256": {
        "encoding": "inplace",
        "label": "uint256",
        "numberOfBytes": "32"
      }
    }
  }
}