{
  "address": "0x2650261094fe20bf0ef8b7E848ccF3af6775d263",
  "abi": [
    {
      "inputs": [
        {
          "internalType": "address",
          "name": "_bitToken",
          "type": "address"
        },
        {
          "internalType": "address",
          "name": "_prizePool",
          "type": "address"
        }
      ],
      "stateMutability": "nonpayable",
      "type": "constructor"
    },
    {
      "inputs": [
        {
          "internalType": "address",
          "name": "owner",
          "type": "address"
        }
      ],
      "name": "OwnableInvalidOwner",
      "type": "error"
    },
    {
      "inputs": [
        {
          "internalType": "address",
          "name": "account",
          "type": "address"
        }
      ],
      "name": "OwnableUnauthorizedAccount",
      "type": "error"
    },
    {
      "anonymous": false,
      "inputs": [
        {
          "indexed": true,
          "internalType": "address",
          "name": "previousOwner",
          "type": "address"
        },
        {
          "indexed": true,
          "internalType": "address",
          "name": "newOwner",
          "type": "address"
        }
      ],
      "name": "OwnershipTransferred",
      "type": "event"
    },
    {
      "inputs": [],
      "name": "bitToken",
      "outputs": [
        {
          "internalType": "contract Bit",
          "name": "",
          "type": "address"
        }
      ],
      "stateMutability": "view",
      "type": "function"
    },
    {
      "inputs": [
        {
          "internalType": "uint256",
          "name": "totalBits",
          "type": "uint256"
        }
      ],
      "name": "getRandomBitHolder",
      "outputs": [
        {
          "internalType": "address",
          "name": "",
          "type": "address"
        }
      ],
      "stateMutability": "view",
      "type": "function"
    },
    {
      "inputs": [],
      "name": "owner",
      "outputs": [
        {
          "internalType": "address",
          "name": "",
          "type": "address"
        }
      ],
      "stateMutability": "view",
      "type": "function"
    },
    {
      "inputs": [],
      "name": "prizePool",
      "outputs": [
        {
          "internalType": "address",
          "name": "",
          "type": "address"
        }
      ],
      "stateMutability": "view",
      "type": "function"
    },
    {
      "inputs": [],
      "name": "renounceOwnership",
      "outputs": [],
      "stateMutability": "nonpayable",
      "type": "function"
    },
    {
      "inputs": [
        {
          "internalType": "address",
          "name": "_prizePool",
          "type": "address"
        }
      ],
      "name": "setPrizePool",
      "outputs": [],
      "stateMutability": "nonpayable",
      "type": "function"
    },
    {
      "inputs": [
        {
          "internalType": "address",
          "name": "newOwner",
          "type": "address"
        }
      ],
      "name": "transferOwnership",
      "outputs": [],
      "stateMutability": "nonpayable",
      "type": "function"
    }
  ],
  "transactionHash": "0x94da05ad958652661f43f6a09b9e1ef70d21c464003c8bb9291b766e4210cfb8",
  "args": [
    "0x9BFCA8A69Fae0fc9cB1B6c6B37516991F3DF05eE",
    "0xaB0035b4d11c325A42582E779206eA9ef717c975"
  ],
  "numDeployments": 1,
  "solcInputHash": "d03c345e2fe0ffb756f818e76fce6290",
  "bytecode": "0x608060405234801561001057600080fd5b50604051610da4380380610da483398181016040528101906100329190610265565b33600073ffffffffffffffffffffffffffffffffffffffff168173ffffffffffffffffffffffffffffffffffffffff16036100a55760006040517f1e4fbdf700000000000000000000000000000000000000000000000000000000815260040161009c91906102b4565b60405180910390fd5b6100b48161013e60201b60201c565b5081600160006101000a81548173ffffffffffffffffffffffffffffffffffffffff021916908373ffffffffffffffffffffffffffffffffffffffff16021790555080600260006101000a81548173ffffffffffffffffffffffffffffffffffffffff021916908373ffffffffffffffffffffffffffffffffffffffff16021790555050506102cf565b60008060009054906101000a900473ffffffffffffffffffffffffffffffffffffffff169050816000806101000a81548173ffffffffffffffffffffffffffffffffffffffff021916908373ffffffffffffffffffffffffffffffffffffffff1602179055508173ffffffffffffffffffffffffffffffffffffffff168173ffffffffffffffffffffffffffffffffffffffff167f8be0079c531659141344cd1fd0a4f28419497f9722a3daafe3b4186f6b6457e060405160405180910390a35050565b600080fd5b600073ffffffffffffffffffffffffffffffffffffffff82169050919050565b600061023282610207565b9050919050565b61024281610227565b811461024d57600080fd5b50565b60008151905061025f81610239565b92915050565b6000806040838503121561027c5761027b610202565b5b600061028a85828601610250565b925050602061029b85828601610250565b9150509250929050565b6102ae81610227565b82525050565b60006020820190506102c960008301846102a5565b92915050565b610ac6806102de6000396000f3fe608060405234801561001057600080fd5b506004361061007d5760003560e01c80638da5cb5b1161005b5780638da5cb5b146100c6578063d7ae66bf146100e4578063d84e9f9214610114578063f2fde38b146101325761007d565b8063336c6d3914610082578063715018a61461009e578063719ce73e146100a8575b600080fd5b61009c600480360381019061009791906106fb565b61014e565b005b6100a661019a565b005b6100b06101ae565b6040516100bd9190610737565b60405180910390f35b6100ce6101d4565b6040516100db9190610737565b60405180910390f35b6100fe60048036038101906100f99190610788565b6101fd565b60405161010b9190610737565b60405180910390f35b61011c610499565b6040516101299190610814565b60405180910390f35b61014c600480360381019061014791906106fb565b6104bf565b005b610156610545565b80600260006101000a81548173ffffffffffffffffffffffffffffffffffffffff021916908373ffffffffffffffffffffffffffffffffffffffff16021790555050565b6101a2610545565b6101ac60006105cc565b565b600260009054906101000a900473ffffffffffffffffffffffffffffffffffffffff1681565b60008060009054906101000a900473ffffffffffffffffffffffffffffffffffffffff16905090565b6000808211610241576040517f08c379a0000000000000000000000000000000000000000000000000000000008152600401610238906108b2565b60405180910390fd5b60008242446040516020016102579291906108f3565b6040516020818303038152906040528051906020012060001c61027a919061094e565b90506000806000905060005b600160009054906101000a900473ffffffffffffffffffffffffffffffffffffffff1673ffffffffffffffffffffffffffffffffffffffff16636b4ed21b6040518163ffffffff1660e01b8152600401602060405180830381865afa1580156102f3573d6000803e3d6000fd5b505050506040513d601f19601f820116820180604052508101906103179190610994565b81101561048d576000600160009054906101000a900473ffffffffffffffffffffffffffffffffffffffff1673ffffffffffffffffffffffffffffffffffffffff1663197bc336836040518263ffffffff1660e01b815260040161037b91906109d0565b602060405180830381865afa158015610398573d6000803e3d6000fd5b505050506040513d601f19601f820116820180604052508101906103bc9190610a00565b90506000600160009054906101000a900473ffffffffffffffffffffffffffffffffffffffff1673ffffffffffffffffffffffffffffffffffffffff166370a08231836040518263ffffffff1660e01b815260040161041b9190610737565b602060405180830381865afa158015610438573d6000803e3d6000fd5b505050506040513d601f19601f8201168201806040525081019061045c9190610994565b9050808461046a9190610a5c565b93508584111561047e57819450505061048d565b50508080600101915050610286565b50819350505050919050565b600160009054906101000a900473ffffffffffffffffffffffffffffffffffffffff1681565b6104c7610545565b600073ffffffffffffffffffffffffffffffffffffffff168173ffffffffffffffffffffffffffffffffffffffff16036105395760006040517f1e4fbdf70000000000000000000000000000000000000000000000000000000081526004016105309190610737565b60405180910390fd5b610542816105cc565b50565b61054d610690565b73ffffffffffffffffffffffffffffffffffffffff1661056b6101d4565b73ffffffffffffffffffffffffffffffffffffffff16146105ca5761058e610690565b6040517f118cdaa70000000000000000000000000000000000000000000000000000000081526004016105c19190610737565b60405180910390fd5b565b60008060009054906101000a900473ffffffffffffffffffffffffffffffffffffffff169050816000806101000a81548173ffffffffffffffffffffffffffffffffffffffff021916908373ffffffffffffffffffffffffffffffffffffffff1602179055508173ffffffffffffffffffffffffffffffffffffffff168173ffffffffffffffffffffffffffffffffffffffff167f8be0079c531659141344cd1fd0a4f28419497f9722a3daafe3b4186f6b6457e060405160405180910390a35050565b600033905090565b600080fd5b600073ffffffffffffffffffffffffffffffffffffffff82169050919050565b60006106c88261069d565b9050919050565b6106d8816106bd565b81146106e357600080fd5b50565b6000813590506106f5816106cf565b92915050565b60006020828403121561071157610710610698565b5b600061071f848285016106e6565b91505092915050565b610731816106bd565b82525050565b600060208201905061074c6000830184610728565b92915050565b6000819050919050565b61076581610752565b811461077057600080fd5b50565b6000813590506107828161075c565b92915050565b60006020828403121561079e5761079d610698565b5b60006107ac84828501610773565b91505092915050565b6000819050919050565b60006107da6107d56107d08461069d565b6107b5565b61069d565b9050919050565b60006107ec826107bf565b9050919050565b60006107fe826107e1565b9050919050565b61080e816107f3565b82525050565b60006020820190506108296000830184610805565b92915050565b600082825260208201905092915050565b7f546f74616c2042697473206d7573742062652067726561746572207468616e2060008201527f7a65726f00000000000000000000000000000000000000000000000000000000602082015250565b600061089c60248361082f565b91506108a782610840565b604082019050919050565b600060208201905081810360008301526108cb8161088f565b9050919050565b6000819050919050565b6108ed6108e882610752565b6108d2565b82525050565b60006108ff82856108dc565b60208201915061090f82846108dc565b6020820191508190509392505050565b7f4e487b7100000000000000000000000000000000000000000000000000000000600052601260045260246000fd5b600061095982610752565b915061096483610752565b9250826109745761097361091f565b5b828206905092915050565b60008151905061098e8161075c565b92915050565b6000602082840312156109aa576109a9610698565b5b60006109b88482850161097f565b91505092915050565b6109ca81610752565b82525050565b60006020820190506109e560008301846109c1565b92915050565b6000815190506109fa816106cf565b92915050565b600060208284031215610a1657610a15610698565b5b6000610a24848285016109eb565b91505092915050565b7f4e487b7100000000000000000000000000000000000000000000000000000000600052601160045260246000fd5b6000610a6782610752565b9150610a7283610752565b9250828201905080821115610a8a57610a89610a2d565b5b9291505056fea26469706673582212202f066c76b240ebeef5541745a5a362460160a21a4d127b977e7a9687c65eccef64736f6c634300081b0033",
  "devdoc": {
    "errors": {
      "OwnableInvalidOwner(address)": [
        {
          "details": "The owner is not a valid owner account. (eg. `address(0)`)"
        }
      ],
      "OwnableUnauthorizedAccount(address)": [
        {
          "details": "The caller account is not authorized to perform an operation."
        }
      ]
    },
    "kind": "dev",
    "methods": {
      "owner()": {
        "details": "Returns the address of the current owner."
      },
      "renounceOwnership()": {
        "details": "Leaves the contract without owner. It will not be possible to call `onlyOwner` functions. Can only be called by the current owner. NOTE: Renouncing ownership will leave the contract without an owner, thereby disabling any functionality that is only available to the owner."
      },
      "transferOwnership(address)": {
        "details": "Transfers ownership of the contract to a new account (`newOwner`). Can only be called by the current owner."
      }
    },
    "version": 1
  },
  "userdoc": {
    "kind": "user",
    "methods": {},
    "version": 1
  },
  "storageLayout": {
    "storage": [
      {
        "astId": 8,
        "contract": "contracts/RandomNumberGenerator.sol:RandomNumberGenerator",
        "label": "_owner",
        "offset": 0,
        "slot": "0",
        "type": "t_address"
      },
      {
        "astId": 1622,
        "contract": "contracts/RandomNumberGenerator.sol:RandomNumberGenerator",
        "label": "bitToken",
        "offset": 0,
        "slot": "1",
        "type": "t_contract(Bit)1187"
      },
      {
        "astId": 1624,
        "contract": "contracts/RandomNumberGenerator.sol:RandomNumberGenerator",
        "label": "prizePool",
        "offset": 0,
        "slot": "2",
        "type": "t_address"
      }
    ],
    "types": {
      "t_address": {
        "encoding": "inplace",
        "label": "address",
        "numberOfBytes": "20"
      },
      "t_contract(Bit)1187": {
        "encoding": "inplace",
        "label": "contract Bit",
        "numberOfBytes": "20"
      }
    }
  }
}